:020000040800F2
:1000000000C0002075420008C9340008D13400083F
:10001000D9340008E1340008E93400080000000089
:10002000000000000000000000000000F1340008A3
:10003000FD340008000000000935000815350008EF
:10004000BD420008BD420008BD420008BD42000894
:10005000BD420008BD420008BD420008BD42000884
:10006000BD420008BD420008BD420008213500081D
:10007000BD420008BD420008BD420008BD42000864
:10008000BD420008BD420008BD420008BD42000854
:10009000BD420008BD420008BD420008BD42000844
:1000A000BD420008BD420008BD420008BD42000834
:1000B00035350008493500085D350008BD420008A7
:1000C000BD420008BD420008BD420008BD42000814
:1000D000BD4200087135000885350008BD420008A2
:1000E000BD420008BD420008BD420008BD420008F4
:1000F000BD420008BD420008BD420008BD420008E4
:10010000BD420008BD420008BD420008BD420008D3
:10011000BD420008BD420008BD420008BD420008C3
:10012000BD420008BD420008BD420008BD420008B3
:1001300000000000000000000000000000000000BF
:1001400000000000000000000000000000000000AF
:10015000000000000000000000000000000000009F
:10016000000000000000000000000000000000008F
:10017000000000000000000000000000000000007F
:10018000000000000000000000000000000000006F
:10019000000000000000000000000000000000005F
:1001A000000000000000000000000000000000004F
:1001B000000000000000000000000000000000003F
:1001C000000000000000000000000000000000002F
:1001D000000000000000000000000000000000001F
:0401E0005FF8E0F1F3
:1001E40010B5054C237833B9044B13B10448AFF36D
:1001F40000800123237010BD3000002000000000A7
:10020400989F000808B5034B1BB103490348AFF39B
:10021400008008BD0000000034000020989F000802
:10022400034613F8012B002AFBD1181A0138704732
:1002340081F0004102E000BF83F0004330B54FEA93
:1002440041044FEA430594EA050F08BF90EA020F00
:100254001FBF54EA000C55EA020C7FEA645C7FEA93
:10026400655C00F0E2804FEA5454D4EB5555B8BFB6
:100274006D420CDD2C4480EA020281EA030382EA27
:10028400000083EA010180EA020281EA0303362DB9
:1002940088BF30BD11F0004F4FEA01314FF4801C8C
:1002A4004CEA113102D0404261EB410113F0004F9E
:1002B4004FEA03334CEA133302D0524263EB430355
:1002C40094EA050F00F0A780A4F10104D5F1200EF3
:1002D4000DDB02FA0EFC22FA05F2801841F100014E
:1002E40003FA0EF2801843FA05F359410EE0A5F122
:1002F40020050EF1200E012A03FA0EFC28BF4CF053
:10030400020C43FA05F3C01851EBE37101F0004508
:1003140007D54FF0000EDCF1000C7EEB00006EEB15
:100324000101B1F5801F1BD3B1F5001F0CD349089F
:100334005FEA30004FEA3C0C04F101044FEA4452F6
:1003440012F5800F80F09A80BCF1004F08BF5FEA7D
:10035400500C50F1000041EB045141EA050130BD5D
:100364005FEA4C0C404141EB0101013C28BFB1F56F
:10037400801FE9D291F0000F04BF01460020B1FABA
:1003840081F308BF2033A3F10B03B3F120020CDA8D
:100394000C3208DD02F1140CC2F10C0201FA0CF06B
:1003A40021FA02F10CE002F11402D8BFC2F1200CD0
:1003B40001FA02F120FA0CFCDCBF41EA0C01904086
:1003C400E41AA2BF01EB0451294330BD6FEA0404CF
:1003D4001F3C1CDA0C340EDC04F11404C4F12002BA
:1003E40020FA04F001FA02F340EA030021FA04F3CC
:1003F40045EA030130BDC4F10C04C4F1200220FA23
:1004040002F001FA04F340EA0300294630BD21FA60
:1004140004F0294630BD94F0000F83F4801306BF26
:1004240081F480110134013D4EE77FEA645C18BF1A
:100434007FEA655C29D094EA050F08BF90EA020FB1
:1004440005D054EA000C04BF1946104630BD91EAA9
:10045400030F1EBF0021002030BD5FEA545C05D1AC
:100464004000494128BF41F0004130BD14F58004EB
:100474003CBF01F5801130BD01F0004545F0FE415F
:1004840041F470014FF0000030BD7FEA645C1ABF94
:10049400194610467FEA655C1CBF0B46024650EACB
:1004A400013406BF52EA033591EA030F41F40021F7
:1004B40030BD00BF90F0000F04BF0021704730B57D
:1004C4004FF4806404F132044FF000054FF0000152
:1004D40050E700BF90F0000F04BF0021704730B513
:1004E4004FF4806404F1320410F0004548BF4042E8
:1004F4004FF000013EE700BF42004FEAE2014FEA3D
:1005040031014FEA02701FBF12F07F4393F07F4F17
:1005140081F06051704732F07F4208BF704793F01A
:100524007F4F04BF41F40021704730B54FF460742D
:1005340001F0004521F000411CE700BF50EA010230
:1005440008BF704730B54FF000050AE050EA0102D9
:1005540008BF704730B511F0004502D5404261EB49
:1005640041014FF4806404F132045FEA915C3FF48A
:10057400D8AE4FF003025FEADC0C18BF03325FEA27
:10058400DC0C18BF033202EBDC02C2F1200300FAD8
:1005940003FC20FA02F001FA03FE40EA0E0021FAFD
:1005A40002F11444BDE600BF4FEA410212F5001205
:1005B40015D211D56FF47873B3EB625212D94FEAA6
:1005C400C12343F0004343EA505311F0004F23FA90
:1005D40002F018BF404270474FF00000704750EAE5
:1005E400013005D111F0004008BF6FF000407047A2
:1005F4004FF00000704700BF80F0004002E000BFF1
:1006040081F0004142001FBF5FEA410392EA030FF9
:100614007FEA226C7FEA236C6AD04FEA1262D2EB43
:100624001363C1BFD218414048404140B8BF5B4248
:10063400192B88BF704710F0004F40F4000020F0E1
:100644007F4018BF404211F0004F41F4000121F0F7
:100654007F4118BF494292EA030F3FD0A2F1010241
:1006640041FA03FC10EB0C00C3F1200301FA03F17F
:1006740000F0004302D5494260EB4000B0F5000FA2
:1006840013D3B0F1807F06D340084FEA310102F161
:100694000102FE2A51D2B1F1004F40EBC25008BF13
:1006A40020F0010040EA03007047490040EB0000DD
:1006B400013A28BFB0F5000FEDD2B0FA80FCACF1DE
:1006C400080CB2EB0C0200FA0CF0AABF00EBC2500B
:1006D40052421843BCBFD0401843704792F0000FF9
:1006E40081F4000106BF80F400000132013BB5E74C
:1006F4004FEA41037FEA226C18BF7FEA236C21D0C2
:1007040092EA030F04D092F0000F08BF0846704726
:1007140090EA010F1CBF0020704712F07F4F04D1F4
:10072400400028BF40F00040704712F100723CBF07
:1007340000F50000704700F0004343F0FE4040F431
:10074400000070477FEA226216BF08467FEA2363EF
:100754000146420206BF5FEA412390EA010F40F4DA
:10076400800070474FF0000304E000BF10F0004326
:1007740048BF40425FEA000C08BF704743F096430D
:1007840001464FF000001CE050EA010208BF704728
:100794004FF000030AE000BF50EA010208BF7047AF
:1007A40011F0004302D5404261EB41015FEA010CC4
:1007B40002BF84460146002043F0B64308BFA3F1BC
:1007C4008053A3F50003BCFA8CF2083AA3EBC2539E
:1007D40010DB01FA02FC634400FA02FCC2F12002BD
:1007E400BCF1004F20FA02F243EB020008BF20F0F4
:1007F4000100704702F1200201FA02FCC2F120025A
:1008040050EA4C0021FA02F243EB020008BF20EA4E
:10081400DC7070474FF0FF0C1CEAD0521EBF1CEA7C
:10082400D15392EA0C0F93EA0C0F6FD01A4480EA6A
:10083400010C400218BF5FEA41211ED04FF0006353
:1008440043EA501043EA5111A0FB01310CF000407F
:10085400B1F5000F3EBF490041EAD3715B0040EAA5
:10086400010062F17F02FD2A1DD8B3F1004F40EB75
:10087400C25008BF20F00100704790F0000F0CF048
:10088400004C08BF49024CEA502040EA51207F3A0C
:10089400C2BFD2F1FF0340EAC250704740F40000E7
:1008A4004FF00003013A5DDC12F1190FDCBF00F0D8
:1008B40000407047C2F10002410021FA02F1C2F186
:1008C400200200FA02FC5FEA310040F1000053EA22
:1008D4004C0308BF20EADC70704792F0000F00F070
:1008E400004C02BF400010F4000F013AF9D040EA76
:1008F4000C0093F0000F01F0004C02BF490011F40A
:10090400000F013BF9D041EA0C018FE70CEAD15307
:1009140092EA0C0F18BF93EA0C0F0AD030F0004C87
:1009240018BF31F0004CD8D180EA010000F000403B
:10093400704790F0000F17BF90F0004F084691F0F9
:10094400000F91F0004F14D092EA0C0F01D1420233
:100954000FD193EA0C0F03D14B0218BF084608D1FC
:1009640080EA010000F0004040F0FE4040F4000046
:10097400704740F0FE4040F4400070474FF0FF0CD9
:100984001CEAD0521EBF1CEAD15392EA0C0F93EA20
:100994000C0F69D0A2EB030280EA010C49024FEA72
:1009A400402037D04FF0805343EA111143EA10132B
:1009B4000CF000408B4238BF5B0042F17D024FF4E3
:1009C400000C8B4224BF5B1A40EA0C00B3EB510FBE
:1009D40024BFA3EB510340EA5C00B3EB910F24BFA7
:1009E400A3EB910340EA9C00B3EBD10F24BFA3EB2C
:1009F400D10340EADC001B0118BF5FEA1C1CE0D1F4
:100A0400FD2A3FF650AF8B4240EBC25008BF20F0A6
:100A1400010070470CF0004C4CEA50207F32C2BFFA
:100A2400D2F1FF0340EAC250704740F400004FF097
:100A34000003013A37E792F0000F00F0004C02BFC8
:100A4400400010F4000F013AF9D040EA0C0093F092
:100A5400000F01F0004C02BF490011F4000F013BEC
:100A6400F9D041EA0C0195E70CEAD15392EA0C0F54
:100A740008D142027FF47DAF93EA0C0F7FF470AF8C
:100A8400084676E793EA0C0F04D14B023FF44CAFCF
:100A940008466EE730F0004C18BF31F0004CCAD164
:100AA40030F000427FF45CAF31F000437FF43CAFA0
:100AB4005FE700BF4FEA4002B2F1FE4F0FD34FF0A1
:100AC4009E03B3EB12620DD94FEA002343F00043B7
:100AD40010F0004F23FA02F018BF404270474FF065
:100AE4000000704712F1610F01D1420205D110F0EC
:100AF400004008BF6FF0004070474FF0000070479F
:100B040080B584B000AF3B1D00221A605A609A6021
:100B14004A4B4B4A1A60494B4FF480729A60474BD8
:100B240000221A73454B00221A75444B4FF460227D
:100B3400DA61424B00225A60404B08221A613F4856
:100B440003F042FC0346002B01D000F0F2FF08231F
:100B54007B600123BB600323FB603B1D19463748C0
:100B640003F016FE0346002B01D000F0E2FF092338
:100B74007B600223BB603B1D1946304803F008FE2E
:100B84000346002B01D000F0D4FF0A237B6003232B
:100B9400BB603B1D1946294803F0FAFD0346002BB0
:100BA40001D000F0C6FF0B237B600423BB603B1D18
:100BB4001946224803F0ECFD0346002B01D000F057
:100BC400B8FF0C237B600523BB603B1D19461B4803
:100BD40003F0DEFD0346002B01D000F0AAFF0D2335
:100BE4007B600623BB603B1D1946144803F0D0FD0F
:100BF4000346002B01D000F09CFF0E237B600723EB
:100C0400BB603B1D19460D4803F0C2FD0346002B93
:100C140001D000F08EFF0F237B600823BB603B1DD7
:100C24001946064803F0B4FD0346002B01D000F03A
:100C340080FF00BF1037BD4680BD00BF4C000020C0
:100C44000024014080B58AB000AF786007F1180332
:100C540000221A605A609A60DA607B681B68334A23
:100C640093425FD1324B9B69314A43F400739361E1
:100C74002F4B9B6903F400737B617B692C4B9B694D
:100C84002B4A43F010039361294B9B6903F0100333
:100C94003B613B69264B9B69254A43F008039361FA
:100CA400234B9B6903F00803FB60FB683F23BB6194
:100CB4000323FB6107F1180319461E4804F0F4FCF2
:100CC4000323BB610323FB6107F1180319461A4888
:100CD40004F0EAFC194B1A4A1A60184B00225A60B5
:100CE400164B00229A60154B8022DA60134B4FF4A6
:100CF40080721A61114B4FF480625A610F4B0022CB
:100D04009A610E4B0022DA610C4804F049F803465C
:100D1400002B01D000F00DFF7B68084A1A62074AD5
:100D24007B68536200BF2837BD4680BD0024014064
:100D34000010024000100140000C01407C00002023
:100D44000800024080B500AF01224FF400410E4874
:100D540004F055FE00224FF400410B4804F04FFE0E
:100D640001224FF40041084804F049FE0A230122FD
:100D74000649074806F026FC0346002B01D101234F
:100D840000E00023184680BD00080140C400002094
:100D94002802002080B582B000AF00224FF4004149
:100DA4001B4804F02CFE01224FF40041184804F0C3
:100DB40026FE0A2301221749174806F003FC0346BE
:100DC400002B01D000231FE00023FB7118E0114B1E
:100DD4001B781A46FB7942FA03F303F00103002B54
:100DE40004D0FB790D4A0021D15406E0FB790B4A6B
:100DF400D25C0132D1B2094AD154FB790133FB717F
:100E0400FB79032BE3D9012318460837BD4680BD7F
:100E140000080140C400002028020020C000002077
:100E240080B483B000AF0346FB71FB790A4AD35CFC
:100E3400282B03D9FB79084A0121D154FB79064AAE
:100E4400D35C012B01D1012300E0002318460C37A9
:100E5400BD4680BC704700BFC000002080B582B092
:100E640000AF0023FB710EE000210B4807F076F879
:100E74000346002B01D1012309E0322003F080FA5C
:100E8400FB790133FB71FB79022BEDD90023184662
:100E94000837BD4680BD00BF6803002080B584B01C
:100EA40000AF78607B68002B04D10021204807F054
:100EB4000FF93AE00123FB601E4AFB68B2FBF3F230
:100EC4007B68B2FBF3F3013BBB600BE0FB680133CF
:100ED400FB60184AFB68B2FBF3F27B68B2FBF3F3E6
:100EE400013BBB60BB68B3F5803F04D3FB684FF69E
:100EF400FE729342EAD9BB68B3F5803F14D20C4B1F
:100F04001B68FA689A620A4B1B68BA68DA62084A74
:100F1400BB68D360064B1B68BA6852085A63002149
:100F2400034807F01BF800E000BF1037BD4680BD42
:100F34006803002000A24A0480B500AF00210248E3
:100F440007F0C6F800BF80BD6803002080B500AF7D
:100F540001224FF48051114804F051FD00224FF456
:100F640080510E4804F04BFD012301220C490D4829
:100F740006F0E4F90346002B07D001224FF4805118
:100F8400064804F03CFD002306E001224FF48051A2
:100F9400024804F034FD0123184680BD00100140CE
:100FA4000A0000202802002080B500AF374B1B88C0
:100FB4001A46374B9A5C374B1A70344B1B88022BFA
:100FC4002CD0022B3DDC002B02D0012B13D038E0B7
:100FD40001224FF48051304804F011FD00224FF4F7
:100FE40000612D4804F00BFD01224FF480712A4862
:100FF40004F005FD26E000224FF48051264804F059
:10100400FEFC01224FF40061234804F0F8FC0122A5
:101014004FF48071204804F0F2FC13E001224FF4F5
:1010240080511D4804F0EBFC01224FF400611A4882
:1010340004F0E5FC00224FF48071174804F0DFFC53
:1010440000E000BF114B1B885A1C144B83FB023178
:10105400D317C91A0B465B000B44D11A8AB20B4B47
:101064001A8000224FF480510D4804F0C8FC01237B
:10107400012208490B4806F061F901224FF480511E
:10108400074804F0BCFC00BF80BD00BFCC000020BA
:10109400C80000200A00002000080140565555559C
:1010A400001001402802002080B483B000AF034642
:1010B400FB71FB790F4AA2FB0323DB08DBB21A4660
:1010C4000D4B9A5C0D4B5A70FA790A4BA3FB021331
:1010D400D9080B469B000B445B00D31ADBB21A46BB
:1010E400054B9A5C054B1A7000BF0C37BD4680BC9B
:1010F400704700BFCDCCCCCC00000020C80000203D
:1011040080B483B000AF0346FB71FB791B09DBB2EB
:101114005AB297F907301B015BB213435BB2FB7100
:10112400FB799B105BB203F033035AB297F9073093
:101134009B005BB223F033035BB213435BB2FB71DE
:10114400FB795B105BB203F055035AB297F9073091
:101154005B005BB223F055035BB213435BB2FB71DC
:10116400FB7918460C37BD4680BC704780B582B009
:1011740000AF0346FB71FB791846FFF7C1FF034636
:10118400DB43DAB2024B9A7000BF0837BD4680BD1C
:10119400C800002080B500AF4FF40041024804F0BD
:1011A40046FC00BF80BD00BF0010014080B582B086
:1011B40000AF0C4B5B690B4A43F001035361094BCD
:1011C4005B6903F001037B607B68002200210B2034
:1011D40003F0AFFD0B2003F0C8FD00BF0837BD4688
:1011E40080BD00BF0010024080B582B000AF002374
:1011F400FB713FE0FB79234A52F82320FB79224913
:1012040031F813301946104604F0E2FB0346002B74
:1012140020D0012B2BD1FB791C4AD35C002B23D18A
:10122400FB791A4A0121D154FB79194A52F8233027
:10123400B3F1FF3F08D0FB79154A52F8232001325D
:10124400134941F823200FE0FB79114A002142F8A9
:10125400231009E0FB790D4AD35C012B06D1FB79FD
:101264000A4A0021D15401E000BF00E000BFFB792D
:101274000133FB71FB79032BBCD900BF00BF0837D6
:10128400BD4680BD0C0000201C000020E0000020B2
:10129400D000002080B483B000AF0346FB71FB791B
:1012A400034A52F8233018460C37BD4680BC7047B9
:1012B400D000002080B485B000AF0346FB71FB79F9
:1012C4000B4A52F82320FB790A4951F82330D31AE8
:1012D400FB60FA79FB79064951F82220054941F867
:1012E4002320FB6818461437BD4680BC704700BFF6
:1012F400D0000020E400002080B582B000AF0023BD
:10130400FB7110E032230322AA210B4804F058FF9A
:101314000346002B01D1012309E0322003F030F809
:10132400FB790133FB71FB79022BEBD900231846BF
:101334000837BD4680BD00BF1401002080B582B0CF
:1013440002AF4FF0FF3300931E23074AAA21074838
:1013540004F0CAFC0346002B01D1012300E0002362
:101364001846BD4680BD00BFF400002014010020D3
:1013740080B483B000AF0346FB71FB790E2B00F2FF
:10138400998001A252F823F0C9130008D913000868
:10139400E9130008F91300080914000819140008D7
:1013A40029140008391400084914000859140008C5
:1013B400691400087914000899140008A914000895
:1013C400891400083E4B5B78012B0CBF01230023DA
:1013D400DBB270E03A4B5B78022B0CBF0123002395
:1013E400DBB268E0364B5B78042B0CBF012300238F
:1013F400DBB260E0324B5B78082B0CBF0123002387
:10140400DBB258E02E4BDB7E012B0CBF0123002303
:10141400DBB250E02A4BDB7E022B0CBF01230023FE
:10142400DBB248E0264BDB7E042B0CBF01230023F8
:10143400DBB240E0224BDB7E082B0CBF01230023F0
:10144400DBB238E01E4BDB7E102B0CBF01230023E4
:10145400DBB230E01A4BDB7E402B0CBF01230023B0
:10146400DBB228E0164BDB7E202B0CBF01230023CC
:10147400DBB220E0124BDB7E802B0CBF0123002368
:10148400DBB218E00E4B5B7F012B0CBF0123002362
:10149400DBB210E00A4B5B7F022B0CBF012300235D
:1014A400DBB208E0064B5B7F042B0CBF0123002357
:1014B400DBB200E0002318460C37BD4680BC704701
:1014C400F400002080B400AF024B1846BD4680BC37
:1014D400704700BFF400002080B588B000AF07F16A
:1014E400100300221A605A609A60DA604B4B9B69C1
:1014F4004A4A43F010039361484B9B6903F010037D
:10150400FB60FB68454B9B69444A43F020039361AD
:10151400424B9B6903F02003BB60BB683F4B9B6954
:101524003E4A43F0040393613C4B9B6903F004037C
:101534007B607B68394B9B69384A43F008039361AD
:10154400364B9B6903F008033B603B6800224FF471
:101554007041334804F053FA002249F6021131482D
:1015640004F04DFA002224212F4804F048FA4FF4E5
:1015740070433B6101237B610023BB610223FB6158
:1015840007F110031946264804F08EF849F60213B1
:101594003B6101237B610023BB610223FB6107F1F3
:1015A400100319461F4804F07FF824233B610123EC
:1015B4007B610023BB610223FB6107F11003194621
:1015C400194804F071F84FF208233B6100237B6152
:1015D4000023BB6107F110031946134804F064F8B3
:1015E4004FF440633B6100237B610023BB6107F13F
:1015F400100319460A4804F057F804233B610023FA
:101604007B610023BB6107F110031946074804F00E
:101614004BF800BF2037BD4680BD00BF001002401C
:101624000010014000080140000C0140001401407A
:1016340080B500AF124B134A1A60114B124A5A601C
:101644000F4B00229A600E4B0022DA600C4B4FF4D1
:1016540080421A610A4B00225A61094B00229A61A6
:10166400074B0022DA61064B00221A62044804F098
:10167400F7F90346002B01D000F05BFA00BF80BDF0
:101684001401002000580040A086010080B588B0F5
:1016940000AF786007F1100300221A605A609A6064
:1016A400DA607B681B68164A934224D1154B9B6908
:1016B400144A43F008039361124B9B6903F0080337
:1016C400FB60FB684FF440633B6112237B6103239F
:1016D400FB6107F1100319460B4803F0E5FF094BC2
:1016E400DB69084A43F48003D361064BDB6903F4E6
:1016F4008003BB60BB6800BF2037BD4680BD00BF10
:101704000058004000100240000C014080B582B037
:1017140000AF0023FB710FE008220B490B4802F0D5
:101724003DFF0346002B01D1012309E0322002F0E2
:1017340027FEFB790133FB71FB79022BECD90023E3
:1017440018460837BD4680BD680100204C000020C3
:1017540080B582B000AF08229C499D4802F01EFF6C
:101764009C4B00221A7000237B602AE0974A7B6816
:1017740032F813301946984A7B6832F81330C83B64
:1017840099420BDB914A7B6832F813301946924A2E
:101794007B6832F81330C83399420FDD8F4A7B6877
:1017A40032F813301A46802313415AB2894B1B78FE
:1017B4005BB213435BB2DAB2864B1A707B680133B7
:1017C4007B607B68072BD1DD824B1B7803F08103A0
:1017D400812B16D0812B18DC802B0AD0802B14DCB3
:1017E400002B02D0012B08D00FE07D4B00221A7091
:1017F4000FE07B4B01221A700BE0794B02221A7026
:1018040007E0774B03221A7003E0754B00221A702D
:1018140000BF704B1B7803F07E037E2B00F09B808F
:101824007E2B00F3CB80702B00F0C080702B00F374
:10183400C580402B00F38C80002BC0F2BF80402B6E
:1018440000F2BC8001A252F823F000BF6319000823
:10185400C119000891190008C1190008C11900082C
:10186400C119000881190008C1190008C11900082C
:10187400C1190008C1190008C1190008731900082A
:10188400C119000889190008C1190008C119000804
:10189400C1190008C1190008C1190008C1190008BC
:1018A400C1190008C1190008C11900086B19000802
:1018B400C1190008C1190008C11900087B190008E2
:1018C400C1190008C1190008C1190008C11900088C
:1018D400C1190008C1190008C1190008C11900087C
:1018E400C1190008C1190008C1190008C11900086C
:1018F400C1190008C1190008C1190008C11900085C
:10190400C1190008C1190008C11900089919000873
:10191400C1190008C1190008C1190008C11900083B
:10192400C1190008C1190008C1190008A11900084B
:10193400C1190008C1190008C1190008C11900081B
:10194400C1190008C1190008C1190008B919000813
:10195400602B27D032E0234B01221A7032E0214B56
:1019640000221A702EE01F4B02221A702AE01D4B2F
:1019740003221A7026E01B4B03221A70194B04220F
:101984001A701FE0174B04221A701BE0154B052236
:101994001A7017E0134B06221A7013E0114B06223B
:1019A4001A700FE00F4B07221A700BE00D4B072241
:1019B4001A7007E00B4B08221A7003E0094B092246
:1019C4001A7000BF00BF0837BD4680BD78010020F3
:1019D4004C000020880100206801002040A100087C
:1019E4008A0100208901002080B400AF024B1B78DB
:1019F4001846BD4680BC70478801002080B400AF03
:101A0400024B1846BD4680BC704700BF68010020E9
:101A140080B400AF024B1846BD4680BC704700BF7F
:101A24007801002080B500AF02F048FC00F024F8F3
:101A3400FFF752FDFFF7BAFB01F0DEFE01F01AFEDC
:101A440001F064FE01F0DCFF02F0AEFA02F0D6FA17
:101A540001F060FF01F0DEFBFFF752F8FFF7E8FD4D
:101A640000F0F2FC03461846FFF71EFB00F018FDD9
:101A740000F0DCFD00BFFBE780B596B000AF07F1D6
:101A8400300328220021184608F012FA07F11C033B
:101A940000221A605A609A60DA601A613B1D0022C3
:101AA4001A605A609A60DA601A615A6101233B63D2
:101AB4004FF480337B630023BB6301233B64022325
:101AC400FB644FF480333B654FF4E0137B6507F10F
:101AD4003003184604F0E8FE0346002B01D000F062
:101AE40028F80F23FB6102233B6200237B624FF43F
:101AF4008063BB620023FB6207F11C0302211846CA
:101B040005F054F90346002B01D000F012F802232B
:101B14007B604FF40043FB603B1D184605F0D4FA8C
:101B24000346002B01D000F004F800BF5837BD462F
:101B340080BD80B400AF72B600BF00BFFDE70000F7
:101B440080B582B000AF7860064A7B681360054BAD
:101B54001B68184602F036F9034618460837BD4696
:101B640080BD00BF9401002098B500AF234B1B68D3
:101B7400234A93421BD102F0D1F90346FF2B04D030
:101B8400204B1B78DBB2072B02D91E4B00221A70A4
:101B94001C4B1B78DBB25A1CD1B21A4A11701C467A
:101BA40002F0BCF903461A46174B1A5522E0134BB0
:101BB4001B68164A934204D0124B1B78DBB2072BE6
:101BC40016D902F0ABF90346FF2B02D10D4B0022CC
:101BD4001A700C4B1B78DBB25A1CD1B2094A117033
:101BE4001C4602F0A5F903461A46074B1A5501E0B4
:101BF400002300E00123184698BD00BF9401002093
:101C0400FC030020980100208C01002044040020E3
:101C140080B483B000AF0346FB71FB79092B71D804
:101C240001A252F823F000BF551C0008671C0008ED
:101C3400791C00088B1C0008C11C0008AF1C00089C
:101C4400D31C00089D1C0008E51C0008F71C0008B4
:101C54002F4B9B79DBB2012B0CBF01230023DBB29A
:101C640051E02B4B9B79DBB2022B0CBF01230023E9
:101C7400DBB248E0264B9B79DBB2042B0CBF01237B
:101C84000023DBB23FE0224B9B79DBB2082B0CBF75
:101C940001230023DBB236E01D4B5B79DBB2042B5E
:101CA4000CBF01230023DBB22DE0194B5B79DBB2BF
:101CB400082B0CBF01230023DBB224E0144B5B7917
:101CC400DBB2102B0CBF01230023DBB21BE0104B53
:101CD4005B79DBB2202B0CBF01230023DBB212E0C3
:101CE4000B4B5B79DBB2012B0CBF01230023DBB26E
:101CF40009E0074B5B79DBB2022B0CBF0123002305
:101D0400DBB200E0002318460C37BD4680BC7047A8
:101D14008C01002080B584B000AF0346FB71002322
:101D2400FB7312E0FB790D4A52F8233019460C4834
:101D340006F014F90346002B01D1012309E03220F7
:101D440002F01EFBFB7B0133FB73FB7B022BE9D907
:101D5400002318461037BD4680BD00BF50A10008BF
:101D6400B003002080B483B000AF03460A46FB7181
:101D74001346BB71BB79642B01D96423BB71FB7916
:101D8400144A52F82330002B04D1134B1B68BA7940
:101D94005A6319E0FB790F4A52F82330042B04D11B
:101DA4000D4B1A68BB7993630EE0FB79094A52F82C
:101DB4002330082B04D1084B1A68BB79D36303E0A2
:101DC400054B1A68BB79136400BF0C37BD4680BC51
:101DD400704700BF50A10008B003002080B582B056
:101DE40000AF78607B68002B0BDB01224FF40051BD
:101DF4000E4803F004FE7B68DBB219460020FFF7AF
:101E0400B1FF7B68002B0DDA00224FF40051074824
:101E140003F0F5FD7B68DBB25B42DBB219460020C0
:101E2400FFF7A0FF00BF0837BD4680BD001001408A
:101E340080B582B000AF78607B68002B0BDB012299
:101E44004FF480410E4803F0DAFD7B68DBB219469B
:101E54000120FFF787FF7B68002B0DDA00224FF487
:101E64008041074803F0CBFD7B68DBB25B42DBB209
:101E740019460120FFF776FF00BF0837BD4680BD35
:101E84000010014080B582B000AF78607B68002B01
:101E94000ADB012204210E4803F0B1FD7B68DBB2AA
:101EA40019460220FFF75EFF7B68002B0CDA002244
:101EB4000421074803F0A3FD7B68DBB25B42DBB27D
:101EC40019460220FFF74EFF00BF0837BD4680BD0C
:101ED400000C014080B582B000AF78607B68002BB5
:101EE4000ADB012202210E4803F089FD7B68DBB284
:101EF40019460320FFF736FF7B68002B0CDA00221B
:101F04000221074803F07BFD7B68DBB25B42DBB256
:101F140019460320FFF726FF00BF0837BD4680BDE2
:101F24000008014080B500AF0020FFF757FF0020F4
:101F3400FFF77EFF0020FFF7A5FF0020FFF7CAFF91
:101F440000BF80BD80B582B000AF78607868FFF7CD
:101F540045FF7868FFF76CFF7868FFF793FF7868B0
:101F6400FFF7B8FF00BF0837BD4680BD80B582B01B
:101F740000AF78607B685B421846FFF72FFF7B68F1
:101F84005B421846FFF754FF7B685B421846FFF735
:101F940079FF7B685B421846FFF79CFF00BF083758
:101FA400BD4680BD80B582B000AF78607B685B427F
:101FB4001846FFF713FF7868FFF73AFF7868FFF7D2
:101FC40061FF7B685B421846FFF784FF00BF083758
:101FD400BD4680BD80B582B000AF78607868FFF7F9
:101FE400FDFE7B685B421846FFF722FF7B685B427D
:101FF4001846FFF747FF7868FFF76CFF00BF083704
:10200400BD4680BD80B582B000AF78600020FFF788
:10201400E5FE7868FFF70CFF7868FFF733FF0020D0
:10202400FFF758FF00BF0837BD4680BD80B582B0BA
:1020340000AF78607868FFF7D1FE0020FFF7F8FE64
:102044000020FFF71FFF7868FFF744FF00BF083741
:10205400BD4680BD80B582B000AF78607B685B42CE
:102064001846FFF7BBFE0020FFF7E2FE0020FFF753
:1020740009FF7B685B421846FFF72CFF00BF083757
:10208400BD4680BD80B582B000AF78600020FFF708
:10209400A5FE7B685B421846FFF7CAFE7B685B427D
:1020A4001846FFF7EFFE0020FFF714FF00BF0837C4
:1020B400BD4680BD80B582B000AF78607B685B426E
:1020C4001846FFF78BFE7B685B421846FFF7B0FEAD
:1020D4007868FFF7D7FE7868FFF7FCFE00BF083783
:1020E400BD4680BD80B582B000AF78607868FFF7E8
:1020F40075FE7868FFF79CFE7B685B421846FFF725
:10210400C1FE7B685B421846FFF7E4FE00BF083758
:10211400BD4680BD80B582B000AF03463960FB7117
:10212400FB79092B3ED801A252F823F0592100086B
:102134006121000869210008712100087921000843
:1021440081210008892100089121000899210008B3
:10215400A12100083868FFF7F5FE23E03868FFF78F
:1021640005FF1FE03868FFF71DFF1BE03868FFF725
:1021740031FF17E03868FFF745FF13E03868FFF7D1
:1021840055FF0FE03868FFF765FF0BE03868FFF78D
:1021940079FF07E03868FFF78DFF03E03868FFF741
:1021A400A1FF00BF00BF0837BD4680BD80B485B025
:1021B40000AFB9607A603B600346FB73FB7B224A45
:1021C4005B011344BA681A60FB7B1F4A5B0113442A
:1021D40004337A681A60FB7B1B4A5B01134408339F
:1021E4003A681A60FB7B184A5B01134408333A6867
:1021F4001A60FB7B144A5B0113440C3300221A60FF
:10220400FB7B114A5B01134410334FF000021A6048
:10221400FB7B0D4A5B01134414334FF000021A6038
:10222400FB7B094A5B011344183300221A60FB7BD1
:10223400054A5B0113441C333A8B1A8000BF1437E0
:10224400BD4680BC704700BF9C01002090B583B0A0
:1022540000AF03463960FB713B68B3F5EA7F03DDE9
:102264004FF4EA733B6005E03B6813F5EA7F01DA5B
:10227400134B3B603868FEF779FA0446FB79114A40
:102284005B0113441C331B881846FEF76FFA0346A0
:102294000D491846FEF7BEFA034619462046FEF7D6
:1022A400B9FA0346FC791846FEF704FC02460549D0
:1022B40063010B440C331A6000BF0C37BD4690BD5C
:1022C4002CFEFFFF9C0100206F12833AB0B586B04C
:1022D40000AF0346FB71FB791846FEF7EBFF78610C
:1022E400FB79584A5B0113440C331B6883EAE3729D
:1022F400A2EBE3727B69002BB8BF5B42D21AFB7975
:1023040050495B010B440C331B68002B02DA4FF07D
:10231400FF3300E0012302FB03F31846FEF726FA1D
:1023240003463B61FB79474A5B01134410331D6844
:10233400FB79444A5B0113441C331B881846FEF79F
:1023440015FA034639691846FEF764FA0346FC7920
:1023540019462846FEF756F903461946394A6301D9
:10236400134410331960FB79364A5B011344183364
:102374001B681846FEF7FAF9034619463869FEF752
:102384003FF903461D46FB792E4A5B0113441C3377
:102394001B881846FEF7EAF90346FC7919462846D5
:1023A400FEF7ECFA03461946264A63011344143334
:1023B4001960FB79234A5B0113441B683969184689
:1023C400FEF728FA03461C46FB791E4A5B011344B8
:1023D40004331A68FB791B495B010B4410331B68F7
:1023E40019461046FEF716FA034619462046FEF72C
:1023F40009F903461C46FB79124A5B01134408336E
:102404001A68FB790F495B010B4414331B681946A6
:102414001046FEF7FFF9034619462046FEF7F2F888
:102424000346FB60FC793869FEF744FB0246054924
:1024340063010B4418331A60FB6818461837BD460D
:10244400B0BD00BF9C01002098B500AF032001F08F
:10245400C9F803465BB2DB005CB2022001F0C2F8AB
:1024640003465BB29B005BB223435CB2012001F0E4
:10247400B9F803465BB25B005BB223435CB2002055
:1024840001F0B0F803465BB223435BB2DAB2034B0C
:102494001A70024B1B78184698BD00BF1C0200201E
:1024A40080B582B002AF534B1B780B2B00F29D809A
:1024B4005149524801F0C8FC002000F0BDFD03461C
:1024C400012B0BD1012000F0B7FD0346012B05D1F0
:1024D400022000F0B1FD0346012B03D048494748D0
:1024E40001F0B2FC0020FFF715FC0346012B11D1CB
:1024F4000120FFF70FFC0346012B0BD10220FFF74D
:1025040009FC0346012B05D10320FFF703FC034616
:10251400012B03D03B49394801F096FCFEF7ECFE51
:102524000346012B03D03849344801F08DFC374869
:10253400FFF706FB0346012B03D035492F4801F072
:1025440083FC00F0EDFD0346012B03D031492B48F9
:1025540001F07AFCFEF7F6FB0346012B04D101F0EF
:1025640019F80346012B03D02B49244801F06CFCD5
:10257400FEF774FC0346012B04D1FEF7E7FC034687
:10258400012B03D025491D4801F05EFC3223009342
:10259400234B244A23490020FFF708FE32230093EB
:1025A4001F4B204A1F490120FFF700FE32230093EE
:1025B4001B4B1C4A1B490220FFF7F8FD32230093F2
:1025C400174B184A17490320FFF7F0FD16490B482B
:1025D40001F03AFC32214FF4FA7000F0BFFD002004
:1025E400FEF7C4FD00BF012300E000231846BD46EA
:1025F40080BD00BF1C020020B09F000844040020DE
:10260400CC9F0008EC9F00080CA00008FC030020ED
:1026140030A0000858A0000878A00008A4A0000872
:102624000AD7233CCDCCCC3DD0A0000890B593B0C4
:1026340000AFBC4B1B780B2B00F2DC8401A252F8D8
:1026440023F000BF792600088D260008C72700085C
:1026540033280008A1280008C3290008292B0008F2
:10266400F72B0008652C00082F2D0008AD2E00085C
:10267400FD2F000800F08EFD0346002B00F0BE8401
:10268400FEF788FD00F0BABC00F084FD0346002B81
:1026940000F0B684FEF77EFB0020FEF7C1FB034684
:1026A400002B14D0A04B1B785BB25B005BB243F0F1
:1026B40001035BB2DAB29C4B1A709B4B1B78184631
:1026C400FEF754FD99499A4801F0BEFB31E0012020
:1026D400FEF7A6FB0346002B0FD0934B1B785B0839
:1026E400DAB2914B1A70904B1B781846FEF73EFDF8
:1026F40090498F4801F0A8FB1BE00220FEF790FBF5
:102704000346002B09D0884B1B781846FEF7C6FBFE
:102714008949874801F098FB0BE00320FEF780FB12
:102724000346002B05D0FEF707FC8449804801F0DE
:102734008BFB032000F056FF03465BB2DB005CB268
:10274400022000F04FFF03465BB29B005BB22343C1
:102754005CB2012000F046FF03465BB25B005BB253
:1027640023435CB2002000F03DFF03465BB22343E9
:102774005BB287F8453097F84530002B07D101222A
:102784004FF480516E4803F03AF900F039BC6D4BB8
:102794001B785A1C97F845100B469B000B445B00B2
:1027A40092FBF3F101FB03F3D31ADAB2654B1A700F
:1027B400644B1B78002B40F02384FEF7EBFC00F005
:1027C4001FBC01F097FB0346002B0DD0FEF7E2FC83
:1027D40001F0A4FB034687F8443007F144030122C7
:1027E4001946534801F05AFB00F0D4FC0346002B71
:1027F40000F00884FEF7CEFCFEF7CCFA0020FEF7CA
:102804000FFB0346002B00F0FD83FEF797FD034604
:10281400012B07D1FEF756FE03461E2219464448F3
:1028240001F03CFB4149424801F00EFBEAE300F0B1
:10283400B1FC0346002B00F0E783FEF7ABFCFEF788
:10284400A9FA0020FEF7ECFA0346002B04D032214B
:102854000020FFF75FFCD7E30120FEF7E1FA03460F
:10286400002B04D032210120FFF754FCCCE30220DA
:10287400FEF7D6FA0346002B04D032210220FFF7DC
:1028840049FCC1E30320FEF7CBFA0346002B00F01A
:10289400BB8332210320FFF73DFCB5E300F07AFC53
:1028A4000346002B00F0B283FEF774FCFEF772FAC5
:1028B4000020FEF7B5FA0346002B16D00020FEF7E1
:1028C400E9FC03463B640023FB6307F13C0107F189
:1028D40040030122184601F04FFC07F13C03042297
:1028E4001946134801F0DAFA90E30120FEF798FA4A
:1028F4000346002B28D00120FEF7CCFC0346BB6323
:1029040000237B6307F1340107F1380301221846E1
:1029140001F032FC07F1340304221946044801F0A3
:10292400BDFA73E31C0200201D020020F0A0000881
:102934004404002004A1000818A100082CA10008E8
:10294400001001401E0200200220FEF769FA03462F
:10295400002B16D00220FEF79DFC03463B630023A8
:10296400FB6207F12C0107F130030122184601F044
:1029740003FC07F12C0304221946D94801F08EFA0E
:1029840044E30320FEF74CFA0346002B00F03E8399
:102994000320FEF77FFC0346BB6200237B6207F142
:1029A400240107F128030122184601F0E5FB07F191
:1029B400240304221946CA4801F070FA26E300F001
:1029C400E9FB0346002B00F0AD80FEF7E3FBFEF7C6
:1029D400E1F90020FEF724FA0346002B10D0EA2187
:1029E4000020FFF733FCEA210120FFF72FFCEA2146
:1029F4000220FFF72BFCEA210320FFF727FC34E039
:102A04000120FEF70DFA0346002B14D04FF4EA71AF
:102A14000020FFF71BFC4FF4EA710120FFF716FCBE
:102A24004FF4EA710220FFF711FC4FF4EA7103201E
:102A3400FFF70CFC19E00220FEF7F2F90346002B25
:102A440013D06FF0E9010020FFF700FC6FF0E901FB
:102A54000120FFF7FBFB6FF0E9010220FFF7F6FB13
:102A64006FF0E9010320FFF7F1FB0020FFF72EFCD4
:102A740003461846FDF740FD02460B46104619462C
:102A840007F042FA02460B4610461946FDF78CFD44
:102A940003461846FFF7A2F90120FFF717FC034687
:102AA4001846FDF729FD02460B461046194607F065
:102AB4002BFA02460B4610461946FDF775FD0346F0
:102AC4001846FFF7B5F90220FFF700FC0346184645
:102AD400FDF712FD02460B461046194607F014FA9C
:102AE40002460B4610461946FDF75EFD034618469E
:102AF400FFF7C8F90320FFF7E9FB03461846FDF783
:102B0400FBFC02460B461046194607F0FDF9024647
:102B14000B4610461946FDF747FD03461846FFF7D6
:102B2400D9F984E200F036FB0346002B00F07082F2
:102B3400FEF730FBFEF72EF90020FEF771F903468D
:102B4400002B10D00021002000F09EFA002101206B
:102B540000F09AFA0021022000F096FA61496048D8
:102B640001F072F954E20120FEF75AF90346002BF2
:102B740010D00E21002000F087FA0E21012000F071
:102B840083FA0E21022000F07FFA5749544801F0DD
:102B94005BF93DE20220FEF743F90346002B10D017
:102BA4001C21002000F070FA1C21012000F06CFAB6
:102BB4001C21022000F068FA4C49494801F044F90C
:102BC40026E20320FEF72CF90346002B00F02082B6
:102BD4003721002000F058FA3721012000F054FA80
:102BE4003721022000F050FA41493D4801F02CF908
:102BF4000EE200F0CFFA0346002B00F00B82FEF742
:102C0400C9FAFEF7C7F80020FEF70AF90346002BBD
:102C140004D00121012000F07DFBFBE10120FEF73F
:102C2400FFF80346002B04D00121002000F072FBC2
:102C3400F0E10220FEF7F4F80346002B04D0002153
:102C4400012000F067FBE5E10320FEF7E9F8034605
:102C5400002B00F0DF810321012000F05BFBD9E1B0
:102C640000F098FA0346002B00F0DC81FEF792FA9C
:102C7400FEF790F80020FEF7D3F80346002B02D0AD
:102C8400FEF744FDCEE10120FEF7CAF80346002B0F
:102C940008D0FEF75DFDFEF7A7FE03461846FEF7D3
:102CA40065FABFE10220FEF7BBF80346002B21D0F2
:102CB40007F1140300221A605A609A60DA60FEF782
:102CC4009DFE07F114030822194601F09FFA07F14B
:102CD400140310221946024801F0E0F8A2E100BFF3
:102CE40044040020F0A0000804A1000818A1000872
:102CF4002CA100080320FEF793F80346002B00F0F4
:102D040091813B1D00221A605A609A60DA60FEF7D6
:102D14007FFE3B1D0822194601F078FA3B1D102264
:102D24001946BD4801F0BAF87CE100F033FA0346D5
:102D3400002B00F07981FEF701FB0346012B40F0E4
:102D44007381322387F847300720FEF711FB0346CF
:102D5400002B04D097F847305B0087F847300420F5
:102D6400FEF706FB0346002B04D097F847305B08B8
:102D740087F847300020FEF7FBFA0346002B06D005
:102D840097F8473019460020FFF7C4F942E00120C4
:102D9400FEF7EEFA0346002B06D097F847301946A3
:102DA4000120FFF7B7F935E00320FEF7E1FA034607
:102DB400002B06D097F8473019460220FFF7AAF9EE
:102DC40028E00220FEF7D4FA0346002B06D097F839
:102DD400473019460320FFF79DF91BE00620FEF754
:102DE400C7FA0346002B06D097F847301946082047
:102DF400FFF790F90EE00520FEF7BAFA0346002B20
:102E040006D097F8473019460920FFF783F901E007
:102E1400FFF788F80820FEF7ABFA0346002B04D02E
:102E24000121012000F076FA09E00A20FEF7A0FA59
:102E34000346002B03D00121002000F06BFA092087
:102E4400FEF796FA0346002B13D0744B1B78362BEF
:102E540004D8724B1B780133DBB201E06F4B1B7853
:102E64006E4A13706D4B1B781946022000F00CF962
:102E7400DAE00B20FEF77CFA0346002B00F0D48046
:102E8400664B1B78002B04D0644B1B78013BDBB2F0
:102E940001E0624B1B78614A1370604B1B78194642
:102EA400022000F0F1F8BFE001F024F80346002B03
:102EB40001D0FEF759FE00F06DF90346002B00F037
:102EC400B580322387F846300820FEF7A1FE03467A
:102ED400002B05D097F846305B0087F846300AE0AF
:102EE4000920FEF795FE0346002B04D097F84630E0
:102EF4005B0887F846300020FEF78AFE0346002B65
:102F040006D097F8463019460020FFF703F928E069
:102F14000120FEF77DFE0346002B06D097F84630CD
:102F240019460120FFF7F6F81BE00220FEF770FEB9
:102F34000346002B06D097F8463019460220FFF7C7
:102F4400E9F80EE00320FEF763FE0346002B06D0EB
:102F540097F8463019460320FFF7DCF801E0FEF746
:102F6400E1FF0420FEF754FE0346002B04D00121A8
:102F7400002000F0CFF909E00720FEF749FE0346E0
:102F8400002B03D00121012000F0C4F90520FEF735
:102F94003FFE0346002B13D0214B1B78362B04D85D
:102FA4001F4B1B780133DBB201E01D4B1B781C4A1D
:102FB40013701B4B1B781946022000F065F835E0AE
:102FC4000620FEF725FE0346002B2FD0144B1B785A
:102FD400002B04D0124B1B78013BDBB201E0104BF9
:102FE4001B780F4A13700E4B1B781946022000F011
:102FF4004BF81BE000231BE000BF18E000BF16E005
:1030040000BF14E000BF12E000BF10E000BF0EE0FC
:1030140000BF0CE000BF0AE0440400201F020020AF
:103024002002002000BF02E000BF00E000BF012337
:1030340018464C37BD4690BD80B584B000AF0346FA
:10304400FB710023FB7312E0FB790D4A52F8233025
:1030540019460C4804F082FF0346002B01D10123DA
:1030640009E0322001F08CF9FB7B0133FB73FB7B1D
:10307400022BE9D9002318461037BD4680BD00BF96
:1030840060A100082003002080B485B000AF03468F
:103094000A46FB711346BB71BB79372B01D9372321
:1030A400BB71BB796E2202FB03F31A4A82FB031243
:1030B4001A44D211DB17D31A9BB21433FB81FB7968
:1030C400154A52F82330002B04D1144B1B68FA899B
:1030D4005A6319E0FB79104A52F82330042B04D1C7
:1030E4000E4B1A68FB8993630EE0FB790A4A52F887
:1030F4002330082B04D1094B1A68FB89D36303E0FE
:10310400064B1A68FB89136400BF1437BD4680BCA4
:10311400704700BFB7600BB660A100082003002011
:1031240080B582B000AF0023FB710DE00A4804F0C3
:1031340065FE0346002B01D1012309E0322001F092
:103144001FF9FB790133FB71FB79022BEED90023C4
:1031540018460837BD4680BD9002002080B483B075
:1031640000AF03460A46FB801346BB80064ABB8871
:103174001380064AFB881380054B00221A7000BF97
:103184000C37BD4680BC7047240200202202002078
:103194002102002080B400AF084B1B78002B08D01C
:1031A400064B00221A70064B1A88064B1A8001231C
:1031B40000E000231846BD4680BC70472102002071
:1031C400240200202202002080B582B000AF786083
:1031D4007B681B68B3F1804F14D10C4B1B88002B08
:1031E40005D00A4B1B88013B9AB2084B1A80074B47
:1031F4001B88002B02D1064B01221A70FDF7D4FE66
:10320400FDF7F2FF00BF0837BD4680BD2202002053
:103214002102002080B500AF174B184A1A60164BE4
:103224004FF482725A60144B00229A60124B0022AF
:10323400DA60114B00221A610F4B00225A610E4BC7
:103244004FF480229A610C4B0822DA610A4B002267
:103254001A62094B00225A62074B00229A62064BFB
:103264000A22DA62044803F0E5FF0346002B01D08A
:10327400FEF75FFC00BF80BD280200200030014043
:1032840080B588B000AF786007F1100300221A609F
:103294005A609A60DA607B681B681B4A93422FD19C
:1032A4001A4B9B69194A43F480539361174B9B69EA
:1032B40003F48053FB60FB68144B9B69134A43F08F
:1032C40004039361114B9B6903F00403BB60BB6867
:1032D400B0233B6102237B610323FB6107F11003ED
:1032E40019460B4802F0E0F940233B6100237B615F
:1032F4000023BB6107F110031946054802F0D4F915
:1033040000BF2037BD4680BD0030014000100240A0
:103314000008014080B582B000AF03460A46FB7145
:103324001346BB71BB79002B01D1002333E0FB7939
:10333400002B09D0012B11D1194B1B889BB2B3F57B
:10334400FA6F08D3002326E0154B1B889BB2002B91
:1033540003D100231FE000BF00E000BFFB791A4641
:103364002021104802F04BFB0F4AFB791370BB7904
:10337400C82202FB03F30D4A13600D4B1B68322273
:103384005A6300210A4804F013FF0346002B01D0BE
:10339400002300E0012318460837BD4680BD00BF66
:1033A40084020020000C01408602002080020020DC
:1033B400D802002080B582B000AF78607B681B68BB
:1033C400224A93423ED1224B1B68002B32DD214B13
:1033D4001B78002B18D0012B2CD11F4B1B889BB2C0
:1033E400B3F5FA6F0CD21C4B1B889BB201339AB213
:1033F400194B1A80164B1B68013B154A136019E0E0
:10340400134B00221A6015E0134B1B889BB2002B50
:103414000CD0114B1B889BB2013B9AB20E4B1A8005
:103424000B4B1B68013B0A4A136002E0084B002265
:103434001A6000BF064B1B68002B03DC0021074801
:1034440004F0BEFF00BF0837BD4680BD0004004045
:10345400800200208602002084020020D80200207E
:1034640080B485B000AF154B9B69144A43F0010347
:103474009361124B9B6903F00103BB60BB680F4B64
:10348400DB690E4A43F08053D3610C4BDB6903F0D4
:1034940080537B607B680A4B5B68FB60FB6823F0AE
:1034A400E063FB60FB6843F00073FB60044AFB6865
:1034B400536000BF1437BD4680BC70470010024003
:1034C4000000014080B400AF00BFFDE780B400AF4E
:1034D40000BFFDE780B400AF00BFFDE780B400AFDC
:1034E40000BFFDE780B400AF00BFFDE780B400AFCC
:1034F40000BFBD4680BC704780B400AF00BFBD466E
:1035040080BC704780B400AF00BFBD4680BC70472C
:1035140080B500AF00F018FF00BF80BD80B500AFDC
:10352400024801F057FE00BF80BD00BF7C000020B0
:1035340080B500AF024805F001F800BF80BD00BFB0
:103544009002002080B500AF024804F0F7FF00BFEE
:1035540080BD00BFD802002080B500AF024804F04F
:10356400EDFF00BF80BD00BF2003002080B500AF89
:10357400024805F033FF00BF80BD00BFFC030020FC
:1035840080B500AF024805F029FF00BF80BD00BF31
:103594004404002080B500AF01224FF400410E48DE
:1035A40002F02DFA00224FF400410B4802F027FAF2
:1035B40001224FF40041084802F021FA0A230122B3
:1035C4000649074803F0FEFF0346002B01D10123FF
:1035D40000E00023184680BD000801408C02002052
:1035E4002802002080B584B000AF0346FB7100229E
:1035F4004FF40041184802F002FA01224FF400414E
:10360400154802F0FCF90A2301221449144803F076
:10361400D9FF0023FB7315E0104B1B781946FB7B85
:10362400102202FA03F30B40002B04D0FB7B0D4A5B
:103634000021D15403E0FB7B0A4A0121D154FB7BD6
:103644000133FB73FB7B032BE6D9FB79054AD35C7F
:1036540018461037BD4680BD000801408C0200208A
:10366400280200208802002080B400AF00BFBD46BD
:1036740080BC704780B586B000AF07F10803002214
:103684001A605A609A60DA603B4600221A605A60F7
:103694001D4B4FF080421A601B4B47225A601A4B55
:1036A40000229A60184B40F2E732DA60164B00228F
:1036B4001A61154B00229A61134804F050FB03462B
:1036C400002B01D0FEF735FA4FF48053BB6007F1AD
:1036D400080319460C4805F0E3F80346002B01D013
:1036E400FEF727FA00233B6000237B603B46194624
:1036F400054805F0A3FC0346002B01D0FEF719FA98
:1037040000BF1837BD4680BD9002002080B58EB042
:1037140000AF07F1280300221A605A609A60DA6049
:1037240007F1200300221A605A603B1D00221A6030
:103734005A609A60DA601A615A619A612C4B2D4A78
:103744001A602B4B40F2CF225A60294B00229A6018
:10375400274B6322DA60264B00221A61244B002295
:103764009A61234804F0FBFA0346002B01D0FEF7CC
:10377400E0F94FF48053BB6207F1280319461C4853
:1037840005F08EF80346002B01D0FEF7D2F9184855
:1037940004F094FB0346002B01D0FEF7CAF9002382
:1037A4003B6200237B6207F120031946104805F0B1
:1037B40045FC0346002B01D0FEF7BBF960237B6078
:1037C4000023BB600023FB6000237B613B1D0022C0
:1037D4001946074804F0A2FF0346002B01D0FEF768
:1037E400A8F9034800F042FA00BF3837BD4680BD4F
:1037F400D80200200004004080B58EB000AF07F16D
:10380400280300221A605A609A60DA6007F12003E4
:1038140000221A605A603B1D00221A605A609A60A6
:10382400DA601A615A619A61384B394A1A60374B27
:1038340040F29F525A60354B00229A60334B40F25B
:10384400E732DA60314B00221A61304B00229A6170
:103854002E4804F084FA0346002B01D0FEF769F9E0
:103864004FF48053BB6207F128031946274805F03B
:1038740017F80346002B01D0FEF75BF9234804F048
:103884001DFB0346002B01D0FEF753F900233B62D6
:1038940000237B6207F1200319461C4805F0CEFB88
:1038A4000346002B01D0FEF744F960237B6000231C
:1038B400BB600023FB6000237B613B1D0022194693
:1038C400124804F02BFF0346002B01D0FEF731F918
:1038D4003B1D042219460D4804F020FF0346002B2B
:1038E40001D0FEF726F93B1D08221946074804F0CB
:1038F40015FF0346002B01D0FEF71BF9034800F027
:10390400B5F900BF3837BD4680BD00BF2003002095
:103914000008004080B58EB000AF07F128030022F4
:103924001A605A609A60DA6007F1200300221A6074
:103934005A603B1D00221A605A609A60DA601A616C
:103944005A619A612C4B2D4A1A602B4B40F2CF22BC
:103954005A60294B00229A60274B6322DA60264B77
:1039640000221A61244B00229A61234804F0F7F9DB
:103974000346002B01D0FEF7DCF84FF48053BB6202
:1039840007F1280319461C4804F08AFF0346002B5C
:1039940001D0FEF7CEF8184804F090FA0346002B45
:1039A40001D0FEF7C6F800233B6200237B6207F1D7
:1039B40020031946104805F041FB0346002B01D0B3
:1039C400FEF7B7F860237B600023BB600023FB6035
:1039D40000237B613B1D00221946074804F09EFE2C
:1039E4000346002B01D0FEF7A4F8034800F03EF98B
:1039F40000BF3837BD4680BD68030020000C00407E
:103A040080B592B000AF07F1400300221A605A60FB
:103A140007F1240300221A605A609A60DA601A617E
:103A24005A619A613B1D20220021184606F040FA93
:103A3400454B464A1A60444B40F2CF225A60424BEF
:103A440000229A60404B6322DA603F4B00221A61E5
:103A54003D4B00225A613C4B00229A613A4804F0E3
:103A64002DFA0346002B01D0FEF763F800233B64D4
:103A740000237B6407F140031946334805F0DEFA5E
:103A84000346002B01D0FEF754F860237B62002329
:103A9400BB620023FB6200233B6300237B630023A0
:103AA400BB630023FB6307F1240300221946264865
:103AB40004F034FE0346002B01D0FEF73AF807F178
:103AC400240304221946204804F028FE0346002B50
:103AD40001D0FEF72EF807F12403082219461A48EC
:103AE40004F01CFE0346002B01D0FEF722F807F178
:103AF40024030C221946144804F010FE0346002B3C
:103B040001D0FEF716F800237B600023BB6000237E
:103B1400FB6000233B6100237B614FF40053BB61D6
:103B240000233B623B1D1946074805F0F3FA0346A0
:103B3400002B01D0FDF7FDFF034800F097F800BF0C
:103B44004837BD4680BD00BFB003002000340140AB
:103B540080B586B000AF78607B681B68B3F1804F96
:103B640014D12F4BDB692E4A43F00103D3612C4B54
:103B7400DB6903F001037B617B69002200211C20C7
:103B840001F0D7F81C2001F0F0F844E07B681B68D2
:103B9400244A934214D1224BDB69214A43F00203A5
:103BA400D3611F4BDB6903F002033B613B690022D5
:103BB40000211D2001F0BDF81D2001F0D6F82AE0F7
:103BC4007B681B68184A934214D1154BDB69144A6D
:103BD40043F00403D361124BDB6903F00403FB607D
:103BE400FB68002200211E2001F0A3F81E2001F032
:103BF400BCF810E07B681B680C4A93420BD1084B5D
:103C0400DB69074A43F00803D361054BDB6903F022
:103C14000803BB60BB6800BF1837BD4680BD00BF4A
:103C2400001002400004004000080040000C004066
:103C340080B485B000AF78607B681B68094A934202
:103C44000BD1094B9B69084A43F400539361064B1B
:103C54009B6903F40053FB60FB6800BF1437BD4647
:103C640080BC7047003401400010024080B58CB025
:103C740000AF786007F11C0300221A605A609A6052
:103C8400DA607B681B68464A93422AD1454B9B699C
:103C9400444A43F008039361424B9B6903F00803D1
:103CA400BB61BB691023FB6102233B620223BB623D
:103CB40007F11C0319463C4801F0F6FC3B4B5B68DA
:103CC400FB62FB6A23F44063FB62FB6A43F0E0633C
:103CD400FB62FB6A43F40063FB62344AFB6A536091
:103CE4005AE07B681B68324A934219D12D4B9B6979
:103CF4002C4A43F0080393612A4B9B6903F00803A1
:103D04007B617B694FF4E073FB6102233B62022316
:103D1400BB6207F11C031946234801F0C5FC3BE0D4
:103D24007B681B68234A934218D11E4B9B691D4A2A
:103D340043F0040393611B4B9B6903F004033B6151
:103D44003B690123FB6102233B620223BB6207F14F
:103D54001C031946184801F0A7FC1DE07B681B688A
:103D6400164A934218D10F4B9B690E4A43F0100335
:103D740093610C4B9B6903F01003FB60FB684FF4E9
:103D84007073FB6102233B620223BB6207F11C03D5
:103D940019460B4801F088FC00BF3037BD4680BD92
:103DA4000004004000100240000C014000000140EB
:103DB40000080040000C00400008014000340140AD
:103DC4000010014080B584B000AF78600023FB731D
:103DD40025E07B681B68164A934209D101221549E4
:103DE400154805F0D5FA0346002B12D101231AE039
:103DF4007B681B68114A934209D10122104911487A
:103E040005F0C6FA0346002B03D101230BE000237F
:103E140009E0322000F0B4FAFB7B0133FB73FB7B37
:103E2400022BD6D9002318461037BD4680BD00BFEB
:103E340000380140F8030020FC0300200044004047
:103E4400FA0300204404002090B585B000AF7860E8
:103E540039600023FB7319E03868FCF7E1F9034685
:103E64009CB23868FCF7DCF903465B0022463968EB
:103E7400786805F002FA0346002B01D1012309E01A
:103E8400322000F07DFAFB7B0133FB73FB7B022BBA
:103E9400E2D9002318461437BD4690BD80B586B0DC
:103EA40000AFF860B9601346FB80BB68002B02D0FA
:103EB400FB88002B01D1002318E00023FB7511E0DF
:103EC400FB885B00FA88B968F86805F0D6F9034600
:103ED400002B01D1012309E0322000F051FAFB7DCF
:103EE4000133FB75FB7D022BEAD9002318461837F2
:103EF400BD4680BD80B400AF074B1B78DBB2002BFE
:103F040004D0054B00221A70012300E00023184658
:103F1400BD4680BC704700BFF903002080B400AFE9
:103F2400024B1B781846BD4680BC7047F80300203E
:103F340080B400AF024B1B781846BD4680BC704766
:103F4400FA03002080B582B000AF78607B681B68FC
:103F54000D4A934207D10D4B01221A7001220C49DC
:103F64000C4805F015FA7B681B680B4A934207D18D
:103F74000A4B01221A70012209490A4805F008FA7D
:103F840000BF0837BD4680BD00380140F90300205A
:103F9400F8030020FC03002000440040FB03002041
:103FA400FA0300204404002080B500AF114B124AEC
:103FB4001A60104B4FF416525A600E4B00229A604E
:103FC4000C4B0022DA600B4B00221A61094B0C22C5
:103FD4005A61084B00229A61064B0022DA610548B7
:103FE40005F0FBF80346002B01D0FDF7A2FD00BF4E
:103FF40080BD00BFFC0300200038014080B500AF45
:10400400114B124A1A60104B4FF416525A600E4B61
:1040140000229A600C4B0022DA600B4B00221A61DA
:10402400094B0C225A61084B00229A61064B00226C
:10403400DA61054805F0D1F80346002B01D0FDF7FD
:1040440078FD00BF80BD00BF440400200044004050
:1040540080B58AB000AF786007F1180300221A60B7
:104064005A609A60DA607B681B683F4A93423AD18F
:104074003E4B9B693D4A43F4804393613B4B9B69B0
:1040840003F480437B617B69384B9B69374A43F077
:1040940004039361354B9B6903F004033B613B6963
:1040A4004FF40073BB610223FB6103237B6207F1BE
:1040B400180319462E4801F0F7FA4FF48063BB61E8
:1040C4000023FB6100233B6207F1180319462848CB
:1040D40001F0EAFA00220021252000F02AFE252022
:1040E40000F043FE3CE07B681B68224A934237D1D0
:1040F4001E4BDB691D4A43F40033D3611B4BDB6960
:1041040003F40033FB60FB68184B9B69174A43F0C8
:1041140004039361154B9B6903F00403BB60BB6804
:104124000423BB610223FB6103237B6207F11803B1
:1041340019460F4801F0B8FA0823BB610023FB615C
:1041440000233B6207F118031946094801F0ACFA51
:1041540000220021262000F0ECFD262000F005FEC0
:1041640000BF2837BD4680BD003801400010024022
:10417400000801400044004080B487B000AFF860FC
:10418400B9601346FB710023FB7535E0FB7D9B0092
:10419400FA6813441B681A0EFB7D9B001946BB6822
:1041A4000B44D2B21A70FB7D9B00FA6813441B685F
:1041B400190CFB7D9B000133BA681344CAB21A7010
:1041C400FB7D9B00FA6813441B68190AFB7D9B0066
:1041D4000233BA681344CAB21A70FB7D9B00FA68B2
:1041E40013441968FB7D9B000333BA681344CAB2B5
:1041F4001A70FB7D0133FB75FA7DFB799A42C5D3B6
:1042040000BF00BF1C37BD4680BC704780B487B078
:1042140000AFF860B9601346FB710023FB751CE026
:10422400FB7D5B00FA6813441B881B0A9AB2FB7D72
:104234005B001946BB680B44D2B21A70FB7D5B006D
:10424400FA6813441988FB7D5B000133BA68134490
:10425400CAB21A70FB7D0133FB75FA7DFB799A4271
:10426400DED300BF00BF1C37BD4680BC70470000D2
:10427400FFF7FAF90B480C490C4A002302E0D45822
:10428400C4500433C4188C42F9D3094A094C00239E
:1042940001E013600432A242FBD305F011FEFDF7E6
:1042A400C1FB70470000002030000020A8A10008D6
:1042B4003000002090040020FEE7000080B500AF2D
:1042C400084B1B68074A43F010031360032000F0F7
:1042D40025FD0F2000F008F8FFF7C2F80023184668
:1042E40080BD00BF0020024080B582B000AF78607E
:1042F400124B1A68124B1B7819464FF47A73B3FBAE
:10430400F1F3B2FBF3F3184600F03DFD0346002B36
:1043140001D001230EE07B680F2B0AD800227968B4
:104324004FF0FF3000F005FD064A7B681360002360
:1043340000E0012318460837BD4680BD2400002054
:104344002C0000202800002080B400AF054B1B780F
:104354001A46054B1B681344034A136000BFBD464D
:1043640080BC70472C0000208C04002080B400AF77
:10437400024B1B681846BD4680BC70478C04002065
:1043840080B584B000AF7860FFF7F0FFB8607B6859
:10439400FB60FB68B3F1FF3F05D00A4B1B781A465C
:1043A400FB681344FB6000BFFFF7E0FF0246BB68F5
:1043B400D31AFA689A42F7D800BF00BF1037BD4637
:1043C40080BD00BF2C00002080B586B000AF7860AF
:1043D4000023FB7500233B610023BB600023FB60CB
:1043E4007B68002B01D10123CEE07B689B68002B06
:1043F4007B689B6A002B09D17B680022DA627B68A8
:10440400002283F824207868FCF71CFC786800F00C
:1044140011FB0346FB757B689B6A03F01003002BBA
:1044240040F0A980FB7D002B40F0A5807B689B6A4F
:1044340023F4885323F0020343F002027B689A6258
:104444007B685A687B681B6851498B420AD17B6838
:10445400DB69B3F5402F02D07B68DB6904E04FF4DD
:10446400002301E07B68DB691A437B681B7B5B00EC
:104474001343BA681343BB607B689B68B3F5807FC2
:1044840003D07B689B68012B02D14FF4807300E05A
:1044940000233A6913433B617B681B7D012B19D1CF
:1044A4007B681B7B002B09D17B689B69013B5A030A
:1044B4003B69134343F400633B610BE07B689B6AF5
:1044C40043F020027B689A627B68DB6A43F0010256
:1044D4007B68DA627B681B685B6823F469417B68EC
:1044E4001B683A690A435A607B681B689A68294BBF
:1044F40013407A681268B9680B4393607B689B68C1
:10450400B3F5807F03D07B689B68012B04D17B6863
:104514001B69013B1B05FB607B681B68DB6A23F49A
:1045240070017B681B68FA680A43DA627B681B685F
:104534009A68194B1340BA689A420BD17B680022DF
:10454400DA627B689B6A23F0030343F001027B6811
:104554009A6218E07B689B6A23F0120343F010020E
:104564007B689A627B68DB6A43F001027B68DA62EB
:104574000123FB7507E07B689B6A43F010027B68AC
:104584009A620123FB75FB7D18461837BD4680BD32
:10459400003C0140FDF7E1FFFE0E1FFF80B586B031
:1045A40000AFF860B9607A600023FB75FB681B6894
:1045B400644A934204D0FB681B68634A934206D161
:1045C400604B5B6803F47023002B40F0B380FB68FE
:1045D40093F82430012B01D10223AEE0FB680122C1
:1045E40083F82420F86800F0CBF90346FB75FB7DC3
:1045F400002B40F09A80FB689B6A23F4706323F0DD
:10460400010343F48072FB689A62FB681B684E4A9C
:10461400934205D14B4B5B6803F47023002B15D1F7
:10462400FB689B6A23F48012FB689A62FB681B6830
:104634005B6803F48063002B26D0FB689B6A23F439
:10464400405343F48052FB689A621DE0FB689B6A06
:1046540043F48012FB689A62FB681B68394A9342F0
:1046640004D0FB681B68384A93420DD1354B5B6814
:1046740003F48063002B07D0FB689B6A23F4405348
:1046840043F48052FB689A62FB689B6A03F480538C
:10469400002B06D0FB68DB6A23F00602FB68DA62B3
:1046A40002E0FB680022DA62FB68002283F824201F
:1046B400FB681B6A254A9A62FB681B6A244ADA6211
:1046C400FB681B6A234A1A63FB681B686FF00202CB
:1046D4001A60FB681B689A68FB681B6842F4807266
:1046E4009A60FB68186AFB681B684C331946BA6801
:1046F4007B6800F0CBFBFB681B689B6803F46023BA
:10470400B3F5602F08D1FB681B689A68FB681B68C7
:1047140042F4A0029A600FE0FB681B689A68FB6889
:104724001B6842F480129A6006E0FB68002283F85A
:10473400242001E00123FB75FB7D18461837BD4694
:1047440080BD00BF0024014000280140BB4A00088E
:10475400374B0008534B000880B483B000AF786037
:1047640000BF0C37BD4680BC704780B483B000AF37
:10477400786000BF0C37BD4680BC704780B483B0FE
:1047840000AF786000BF0C37BD4680BC70470000A6
:1047940080B485B000AF786039600023FB730023D8
:1047A400BB607B6893F82430012B01D10223DCE049
:1047B4007B68012283F824203B685B68062B1CD8A5
:1047C4007B681B68596B3B685A6813469B0013440B
:1047D400053B1F2202FA03F3DB4319403B681868C8
:1047E4003B685A6813469B001344053B00FA03F2E6
:1047F4007B681B680A435A633CE03B685B680C2B8C
:104804001CD87B681B68196B3B685A6813469B006D
:104814001344233B1F2202FA03F3DB4319403B6892
:1048240018683B685A6813469B001344233B00FAFC
:1048340003F27B681B680A431A631BE07B681B68EE
:10484400D96A3B685A6813469B001344413B1F22B4
:1048540002FA03F3DB4319403B6818683B685A6863
:1048640013469B001344413B00FA03F27B681B6828
:104874000A43DA623B681B68092B1CD97B681B68F6
:10488400D9683B681A6813465B0013441E3B072231
:1048940002FA03F3DB4319403B6898683B681A68E3
:1048A40013465B0013441E3B00FA03F27B681B684B
:1048B4000A43DA6019E07B681B6819693B681A6867
:1048C40013465B001344072202FA03F3DB43194047
:1048D4003B6898683B681A6813465B00134400FA07
:1048E40003F27B681B680A431A613B681B68102B40
:1048F40003D03B681B68112B32D17B681B681D4AAF
:10490400934225D17B681B689B6803F40003002B4A
:1049140026D17B681B689A687B681B6842F4000296
:104924009A603B681B68102B1AD1134B1B68134AFF
:10493400A2FB03239A0C13469B0013445B00BB6049
:1049440002E0BB68013BBB60BB68002BF9D107E008
:104954007B689B6A43F020027B689A620123FB73A5
:104964007B68002283F82420FB7B18461437BD465D
:1049740080BC7047002401402400002083DE1B43D8
:1049840080B584B000AF78600023FB600023BB6077
:104994007B681B689B6803F00103012B40D07B6894
:1049A4001B689A687B681B6842F001029A601F4B7F
:1049B4001B681F4AA2FB03239B0CBB6002E0BB687D
:1049C400013BBB60BB68002BF9D1FFF7CFFCF8605B
:1049D4001FE0FFF7CBFC0246FB68D31A022B18D961
:1049E4007B681B689B6803F00103012B11D07B6873
:1049F4009B6A43F010027B689A627B68DB6A43F02F
:104A040001027B68DA627B68002283F82420012398
:104A140007E07B681B689B6803F00103012BD8D176
:104A2400002318461037BD4680BD00BF2400002077
:104A340083DE1B4380B584B000AF78600023FB6045
:104A44007B681B689B6803F00103012B2ED17B68F4
:104A54001B689A687B681B6822F001029A60FFF762
:104A640085FCF8601BE0FFF781FC0246FB68D31A63
:104A7400022B14D97B681B689B6803F00103012B8C
:104A84000DD17B689B6A43F010027B689A627B6855
:104A9400DB6A43F001027B68DA62012307E07B688A
:104AA4001B689B6803F00103012BDCD0002318462C
:104AB4001037BD4680BD80B584B000AF78607B6898
:104AC4005B6AFB60FB689B6A03F05003002B27D1F1
:104AD400FB689B6A43F40072FB689A62FB681B687C
:104AE4009B6803F46023B3F5602F15D1FB681B7B2F
:104AF400002B11D1FB689B6A23F48072FB689A62D5
:104B0400FB689B6A03F48053002B05D1FB689B6A06
:104B140043F00102FB689A62F868FFF71DFE04E0A7
:104B2400FB681B6A1B6B7868984700BF1037BD464B
:104B340080BD80B584B000AF78607B685B6AFB6041
:104B4400F868FFF712FE00BF1037BD4680BD80B580
:104B540084B000AF78607B685B6AFB60FB689B6A2B
:104B640043F04002FB689A62FB68DB6A43F004028C
:104B7400FB68DA62F868FFF701FE00BF1037BD4634
:104B840080BD000080B485B000AF78607B6803F01E
:104B94000703FB600C4BDB68BB60BA684FF6FF038E
:104BA4001340BB60FB681A02BB68134343F0BF6346
:104BB40043F40033BB60044ABB68D36000BF1437BE
:104BC400BD4680BC704700BF00ED00E080B400AF7C
:104BD400044BDB681B0A03F007031846BD4680BC80
:104BE400704700BF00ED00E080B483B000AF03461F
:104BF400FB7197F90730002B0BDBFB7903F01F02E5
:104C0400064997F907305B09012000FA02F241F8DE
:104C1400232000BF0C37BD4680BC704700E100E094
:104C240080B483B000AF03463960FB7197F9073055
:104C3400002B0ADB3B68DAB20C4997F90730120102
:104C4400D2B20B4483F800230AE03B68DAB2084985
:104C5400FB7903F00F03043B1201D2B20B441A7622
:104C640000BF0C37BD4680BC704700BF00E100E0C8
:104C740000ED00E080B489B000AFF860B9607A60FC
:104C8400FB6803F00703FB61FB69C3F10703042B13
:104C940028BF0423BB61FB690433062B02D9FB69DB
:104CA400033B00E000237B614FF0FF32BB6902FA53
:104CB40003F3DA43BB681A407B699A404FF0FF3133
:104CC4007B6901FA03F3D9437B680B40134318460D
:104CD4002437BD4680BC704780B582B000AF786091
:104CE4007B68013BB3F1807F01D301230FE00A4AC3
:104CF4007B68013B53600F214FF0FF30FFF790FFBB
:104D0400054B00229A60044B07221A6000231846C0
:104D14000837BD4680BD00BF10E000E080B582B01A
:104D240000AF78607868FFF72DFF00BF0837BD46F5
:104D340080BD80B586B000AF0346B9607A60FB736E
:104D440000237B61FFF742FF78617A68B96878696C
:104D5400FFF790FF024697F90F3011461846FFF708
:104D64005FFF00BF1837BD4680BD80B582B000AF7D
:104D74000346FB7197F907301846FFF735FF00BF6C
:104D84000837BD4680BD80B582B000AF78607868D2
:104D9400FFF7A2FF034618460837BD4680BD000052
:104DA40080B485B000AF78600023FB607B68002B83
:104DB40001D1012359E07B681B681A462D4B9A42A6
:104DC4000FD87B681B681A462B4B13442B4AA2FB53
:104DD40003231B099A007B681A647B68284ADA63F8
:104DE4000EE07B681B681A46264B1344234AA2FB39
:104DF40003231B099A007B681A647B68224ADA63DE
:104E04007B68022283F821207B681B681B68FB6097
:104E1400FB6823F47F5323F03003FB607B685A68FC
:104E24007B689B681A437B68DB681A437B681B6951
:104E34001A437B685B691A437B689B691A437B68E6
:104E4400DB691343FA681343FB607B681B68FA68E9
:104E54001A607B6800229A637B68012283F8212010
:104E64007B68002283F82020002318461437BD46AF
:104E740080BC704707040240F8FFFDBFCDCCCCCC0A
:104E840000000240F8FBFDBF0004024080B586B07C
:104E940000AFF860B9607A603B600023FB75FB6883
:104EA40093F82030012B01D102234BE0FB6801224F
:104EB40083F82020FB6893F82130DBB2012B3AD130
:104EC400FB68022283F82120FB6800229A63FB68B6
:104ED4001B681A68FB681B6822F001021A603B68B1
:104EE4007A68B968F86800F0B1FBFB68DB6A002BEC
:104EF40008D0FB681B681A68FB681B6842F00E0246
:104F04001A600FE0FB681B681A68FB681B6822F0D4
:104F140004021A60FB681B681A68FB681B6842F08D
:104F24000A021A60FB681B681A68FB681B6842F077
:104F340001021A6005E0FB68002283F820200223A6
:104F4400FB75FB7D18461837BD4680BD80B485B01F
:104F540000AF78600023FB737B6893F82130DBB2E9
:104F6400022B08D07B6804229A637B68002283F8B2
:104F74002020012320E07B681B681A687B681B687B
:104F840022F00E021A607B681B681A687B681B6833
:104F940022F001021A607B681A6C7B68DB6B0121CA
:104FA40001FA02F25A607B68012283F821207B68AF
:104FB400002283F82020FB7B18461437BD4680BCB2
:104FC4007047000080B584B000AF78600023FB73A5
:104FD4007B6893F82130DBB2022B05D07B68042276
:104FE4009A630123FB73D6E07B681B681A687B68AD
:104FF4001B6822F00E021A607B681B681A687B68C3
:105004001B6822F001021A607B681B681A46644B15
:105014009A4258D97B681B68624A93424FD07B6896
:105024001B68614A934248D07B681B685F4A93427D
:1050340040D07B681B685E4A934238D07B681B680B
:105044005C4A934230D07B681B685B4A934228D009
:105054007B681B68524A934220D07B681B68574A7E
:10506400934219D07B681B68554A934212D07B68DF
:105074001B68544A93420AD07B681B68524A934285
:1050840002D14FF480531BE04FF4803318E04FF407
:10509400807315E0102313E0012311E04FF08073B7
:1050A4000EE04FF480130BE04FF4803308E04FF42C
:1050B400805305E04FF4807302E0102300E00123E5
:1050C400424A536057E07B681B68364A93424FD08C
:1050D4007B681B68344A934248D07B681B68334A18
:1050E400934240D07B681B68314A934238D07B6836
:1050F4001B68304A934230D07B681B682E4A934227
:1051040028D07B681B68264A934220D07B681B68A2
:105114002A4A934219D07B681B68294A934212D0C9
:105124007B681B68274A93420AD07B681B68264A1F
:10513400934202D14FF480531BE04FF4803318E0C4
:105144004FF4807315E0102313E0012311E04FF0B6
:1051540080730EE04FF480130BE04FF4803308E0CB
:105164004FF4805305E04FF4807302E0102300E015
:105174000123174A53607B68012283F821207B684E
:10518400002283F820207B685B6B002B03D07B68B4
:105194005B6B78689847FB7B18461037BD4680BD2B
:1051A40080000240080002401C000240300002401F
:1051B40044000240580002406C00024008040240CF
:1051C4001C04024030040240440402400004024033
:1051D4000000024080B584B000AF78607B68DB6B70
:1051E4001B68FB607B681B681B68BB607B681B6C6F
:1051F40004229A40FB681340002B00F0F180BB6846
:1052040003F00403002B00F0EB807B681B681B6831
:1052140003F02003002B07D17B681B681A687B68A6
:105224001B6822F004021A607B681B681A465F4BF5
:105234009A4258D97B681B685D4A93424FD07B6879
:105244001B685C4A934248D07B681B685A4A934265
:1052540040D07B681B68594A934238D07B681B68EE
:10526400574A934230D07B681B68564A934228D0F1
:105274007B681B684D4A934220D07B681B68524A66
:10528400934219D07B681B68504A934212D07B68C2
:105294001B684F4A93420AD07B681B684D4A93426D
:1052A40002D14FF480431BE04FF4802318E04FF405
:1052B400806315E0402313E0042311E04FF0806382
:1052C4000EE04FF480030BE04FF4802308E04FF42A
:1052D400804305E04FF4806302E0402300E00423B0
:1052E4003D4A536057E07B681B68314A93424FD074
:1052F4007B681B682F4A934248D07B681B682E4A00
:10530400934240D07B681B682C4A934238D07B6818
:105314001B682B4A934230D07B681B68294A93420E
:1053240028D07B681B68214A934220D07B681B6885
:10533400254A934219D07B681B68244A934212D0B1
:105344007B681B68224A93420AD07B681B68214A07
:10535400934202D14FF480431BE04FF4802318E0C2
:105364004FF4806315E0402313E0042311E04FF071
:1053740080630EE04FF480030BE04FF4802308E0D9
:105384004FF4804305E04FF4806302E0402300E0E3
:105394000423124A53607B68DB6A002B00F03681D9
:1053A4007B68DB6A7868984730E100BF8000024080
:1053B400080002401C000240300002404400024049
:1053C400580002406C000240080402401C040240E1
:1053D4003004024044040240000402400000024041
:1053E4007B681B6C02229A40FB681340002B00F080
:1053F400DD80BB6803F00203002B00F0D7807B68DC
:105404001B681B6803F02003002B0BD17B681B680F
:105414001A687B681B6822F00A021A607B68012202
:1054240083F821207B681B681A467B4B9A4258D923
:105434007B681B68794A93424FD07B681B68784A23
:10544400934248D07B681B68764A934240D07B687D
:105454001B68754A934238D07B681B68734A934231
:1054640030D07B681B68724A934228D07B681B68E3
:10547400694A934220D07B681B686E4A934219D0D4
:105484007B681B686C4A934212D07B681B686B4A2A
:1054940093420AD07B681B68694A934202D14FF455
:1054A40000531BE04FF4003318E04FF4007315E091
:1054B400202313E0022311E04FF000730EE04FF4B9
:1054C40000130BE04FF4003308E04FF4005305E001
:1054D4004FF4007302E0202300E00223594A536092
:1054E40057E07B681B684D4A93424FD07B681B682A
:1054F4004B4A934248D07B681B684A4A934240D047
:105504007B681B68484A934238D07B681B68474ACB
:10551400934230D07B681B68454A934228D07B680D
:105524001B683D4A934220D07B681B68414A9342E2
:1055340019D07B681B68404A934212D07B681B6871
:105544003E4A93420AD07B681B683D4A934202D18B
:105554004FF400531BE04FF4003318E04FF4007392
:1055640015E0202313E0022311E04FF000730EE056
:105574004FF400130BE04FF4003308E04FF40053F2
:1055840005E04FF4007302E0202300E002232E4ADA
:1055940053607B68002283F820207B689B6A002B81
:1055A40034D07B689B6A786898472FE07B681B6CD3
:1055B40008229A40FB681340002B28D0BB6803F0F4
:1055C4000803002B23D07B681B681A687B681B6860
:1055D40022F00E021A607B681A6C7B68DB6B012177
:1055E40001FA02F25A607B6801229A637B68012205
:1055F40083F821207B68002283F820207B681B6BC2
:10560400002B04D07B681B6B7868984700BF00BFF1
:105614001037BD4680BD00BF800002400800024034
:105624001C00024030000240440002405800024086
:105634006C000240080402401C0402403004024092
:1056440044040240000402400000024080B485B0DB
:1056540000AFF860B9607A603B60FB681A6CFB6865
:10566400DB6B012101FA02F25A60FB681B683A689D
:105674005A60FB685B68102B08D1FB681B687A686A
:105684009A60FB681B68BA68DA6007E0FB681B680D
:10569400BA689A60FB681B687A68DA6000BF1437DE
:1056A400BD4680BC7047000080B48BB000AF78600A
:1056B400396000237B6200233B6279E101227B6A2B
:1056C40002FA03F3FB613B681B68FA691340BB6190
:1056D400BA69FB699A4240F068813B685B68964A04
:1056E40093425ED0944A934275D8944A934258D0D8
:1056F400924A93426FD8924A934252D0904A93422C
:1057040069D8904A93424CD08E4A934263D88E4AC9
:10571400934246D08C4A93425DD8122B2AD8122B3E
:1057240059D801A252F823F0A7570008815700085E
:1057340093570008D5570008DB570008DB570008CB
:10574400DB570008DB570008DB570008DB5700086D
:10575400DB570008DB570008DB570008DB5700085D
:10576400DB570008DB570008DB570008895700089F
:105774009D570008754A934213D02CE03B68DB68C0
:105784003B6229E03B68DB6804333B6224E03B680E
:10579400DB6808333B621FE03B68DB680C333B6229
:1057A4001AE03B689B68002B02D104233B6213E0A0
:1057B4003B689B68012B05D108233B627B68FA692F
:1057C4001A6109E008233B627B68FA695A6103E0C5
:1057D40000233B6200E000BFBB69FF2B01D87B685C
:1057E40001E07B6804337B61BB69FF2B02D87B6AD1
:1057F4009B0002E07B6A083B9B003B617B691A6863
:105804000F213B6901FA03F3DB431A40396A3B6910
:1058140001FA03F31A437B691A603B685B6803F07F
:105824008053002B00F0C180494B9B69484A43F0E8
:1058340001039361464B9B6903F00103BB60BB68A2
:10584400444A7B6A9B08023352F82330FB607B6A2C
:1058540003F003039B000F2202FA03F3DB43FA680D
:105864001340FB607B683C4A93421FD07B683B4AF1
:10587400934219D07B683A4A934213D07B68394AE1
:1058840093420DD07B68384A934207D07B68374AED
:10589400934201D105230AE0062308E0042306E02D
:1058A400032304E0022302E0012300E000237A6AD8
:1058B40002F0030292009340FA681343FB60254907
:1058C4007B6A9B080233FA6841F823203B685B68D3
:1058D40003F48013002B06D0254B9A682449BB6936
:1058E40013438B6006E0224B9A68BB69DB43204973
:1058F40013408B603B685B6803F40013002B06D0F5
:105904001B4BDA681A49BB691343CB6006E0184B9A
:10591400DA68BB69DB4316491340CB603B685B68BC
:1059240003F40033002B25D0114B5A681049BB698E
:1059340013434B6025E000BF00003210000031101B
:1059440000002210000021100000121000001110AD
:10595400001002400000014000080140000C01401A
:10596400001001400014014000180140001C0140D7
:1059740000040140154B5A68BB69DB4313491340CB
:105984004B603B685B6803F48033002B06D00F4BFD
:105994001A680E49BB6913430B6006E00B4B1A6887
:1059A400BB69DB43094913400B607B6A01337B62AB
:1059B4003B681A687B6A22FA03F3002B7FF47EAEFD
:1059C40000BF00BF2C37BD4680BC704700040140B7
:1059D40080B485B000AF78600B467B807B689A68A2
:1059E4007B881340002B02D00123FB7301E00023CA
:1059F400FB73FB7B18461437BD4680BC704780B4EC
:105A040083B000AF78600B467B8013467B707B7855
:105A1400002B03D07A887B681A6103E07B881A0420
:105A24007B681A6100BF0C37BD4680BC704780B4E8
:105A340085B000AF78600B467B807B68DB68FB60D9
:105A44007A88FB6813401A04FB68D9437B880B40AF
:105A54001A437B681A6100BF1437BD4680BC704787
:105A640080B584B000AF78607B68002B01D101233E
:105A74002BE17B6893F83D30DBB2002B06D17B68C9
:105A8400002283F83C207868FBF700FE7B68242220
:105A940083F83D207B681B681A687B681B6822F0CA
:105AA40001021A607B681B681A687B681B6842F4F1
:105AB40000421A607B681B681A687B681B6822F4C2
:105AC40000421A6001F0BAFAF8607B685B68814AA8
