:020000040800F2
:1000000000C00020951C0008AD120008B5120008C1
:10001000BD120008C5120008CD1200080000000043
:10002000000000000000000000000000D5120008E1
:10003000E112000800000000ED120008F9120008AB
:10004000DD1C0008DD1C0008DD1C0008DD1C0008AC
:10005000DD1C0008DD1C0008DD1C0008DD1C00089C
:10006000DD1C0008DD1C0008DD1C0008051300086D
:10007000DD1C0008DD1C0008DD1C0008DD1C00087C
:10008000DD1C0008DD1C0008DD1C0008DD1C00086C
:10009000DD1C0008DD1C0008DD1C0008DD1C00085C
:1000A000DD1C0008DD1C0008DD1C0008DD1C00084C
:1000B000191300082D13000841130008DD1C000867
:1000C000DD1C0008DD1C0008DD1C0008DD1C00082C
:1000D000DD1C00085513000869130008DD1C00082A
:1000E000DD1C0008DD1C0008DD1C0008DD1C00080C
:1000F000DD1C0008DD1C0008DD1C0008DD1C0008FC
:10010000DD1C0008DD1C00087D130008DD1C000854
:10011000DD1C0008DD1C0008DD1C0008DD1C0008DB
:10012000DD1C0008DD1C0008DD1C0008DD1C0008CB
:1001300000000000000000000000000000000000BF
:1001400000000000000000000000000000000000AF
:10015000000000000000000000000000000000009F
:10016000000000000000000000000000000000008F
:10017000000000000000000000000000000000007F
:10018000000000000000000000000000000000006F
:10019000000000000000000000000000000000005F
:1001A000000000000000000000000000000000004F
:1001B000000000000000000000000000000000003F
:1001C000000000000000000000000000000000002F
:1001D000000000000000000000000000000000001F
:0401E0005FF8E0F1F3
:1001E40010B5054C237833B9044B13B10448AFF36D
:1001F40000800123237010BD38000020000000009F
:10020400DC5E000808B5034B1BB103490348AFF398
:10021400008008BD000000003C000020DC5E0008F7
:1002240080B584B000AF3B1D00221A605A609A600A
:10023400184B194A1A60174B00229A60154B00227A
:100244001A73144B00221A75124B4FF46022DA61B0
:10025400104B00225A600F4B01221A610D4801F025
:100264009FFD0346002B01D000F040FC08237B6077
:100274000123BB600023FB603B1D1946054801F0C8
:1002840073FF0346002B01D000F030FC00BF103791
:10029400BD4680BD540000200024014080B58AB0D2
:1002A40000AF786007F1180300221A605A609A6060
:1002B400DA607B681B68334A93425FD1324B9B6997
:1002C400314A43F4007393612F4B9B6903F4007329
:1002D4007B617B692C4B9B692B4A43F01003936130
:1002E400294B9B6903F010033B613B69264B9B69D7
:1002F400254A43F008039361234B9B6903F00803E9
:10030400FB60FB683F23BB610323FB6107F1180318
:1003140019461E4802F0B4FE0323BB610323FB61AC
:1003240007F1180319461A4802F0AAFE194B1A4A93
:100334001A60184B00225A60164B00229A60154B23
:100344008022DA60134B4FF480721A61114B4FF420
:1003540080625A610F4B00229A610E4B0022DA61CF
:100364000C4802F009FA0346002B01D000F0BEFB52
:100374007B68084A1A62074A7B68536200BF2837C1
:10038400BD4680BD00240140001002400010014021
:10039400000C0140840000200800024080B500AF3A
:1003A40001224FF48051024802F0FEFF00BF80BDDD
:1003B4000010014080B500AF374B1B881A46374BFD
:1003C4009A5C374B1A70344B1B88022B2CD0022BAF
:1003D4003DDC002B02D0012B13D038E001224FF476
:1003E4008051304802F0E0FF00224FF400612D48B4
:1003F40002F0DAFF01224FF480712A4802F0D4FFA0
:1004040026E000224FF48051264802F0CDFF01225D
:100414004FF40061234802F0C7FF01224FF48071BA
:10042400204802F0C1FF13E001224FF480511D481F
:1004340002F0BAFF01224FF400611A4802F0B4FF3F
:1004440000224FF48071174802F0AEFF00E000BFB5
:10045400114B1B885A1C144B83FB0231D317C91A46
:100464000B465B000B44D11A8AB20B4B1A80002254
:100474004FF480510D4802F097FF012301220849EF
:100484000B4803F00DFD01224FF48051074802F0A0
:100494008BFF00BF80BD00BFCC000020C80000203F
:1004A4000A0000200008014056555555001001402F
:1004B400F800002080B483B000AF0346FB80FB88C3
:1004C4000F4AA2FB0323DB089BB21A460D4B9A5C2E
:1004D4000D4B5A70FA880A4BA3FB0213D9080B463A
:1004E4009B000B445B00D31A9BB21A46054B9A5CE3
:1004F400054B1A7000BF0C37BD4680BC704700BF67
:10050400CDCCCCCC00000020C800002080B483B047
:1005140000AF0346FB71FB791B09DBB25AB2FB79CE
:100524001B015BB213435BB2FB71FB799B105BB2A3
:1005340003F033035AB2FB799B005BB223F033031D
:100544005BB213435BB2FB71FB795B105BB203F0EC
:1005540055035AB2FB795B005BB223F055035BB2DF
:1005640013435BB2FB71FB7918460C37BD4680BC64
:100574007047000080B582B000AF0346FB71FB7981
:100584001846FFF7C3FF0346DB43DAB2024B9A7007
:1005940000BF0837BD4680BDC800002080B582B0CA
:1005A40000AF0C4B5B690B4A43F001035361094BE9
:1005B4005B6903F001037B607B68002200210B2050
:1005C40002F0A3F80B2002F0BCF800BF0837BD46C8
:1005D40080BD00BF0010024080B588B000AF07F1B5
:1005E400100300221A605A609A60DA604B4B9B69D0
:1005F4004A4A43F010039361484B9B6903F010038C
:10060400FB60FB68454B9B69444A43F020039361BC
:10061400424B9B6903F02003BB60BB683F4B9B6963
:100624003E4A43F0040393613C4B9B6903F004038B
:100634007B607B68394B9B69384A43F008039361BC
:10064400364B9B6903F008033B603B6800224FF480
:100654007041334802F0A8FE002249F602113148E5
:1006640002F0A2FE002224212F4802F09DFE4FF446
:1006740070433B6101237B610023BB610223FB6167
:1006840007F110031946264802F0FAFC49F6021352
:100694003B6101237B610023BB610223FB6107F102
:1006A400100319461F4802F0EBFC24233B6101238D
:1006B4007B610023BB610223FB6107F11003194630
:1006C400194802F0DDFC4FF208233B6100237B61F3
:1006D4000023BB6107F110031946134802F0D0FC54
:1006E4004FF440633B6100237B610023BB6107F14E
:1006F400100319460A4802F0C3FC04233B6100239B
:100704007B610023BB6107F110031946074802F01F
:10071400B7FC00BF2037BD4680BD00BF00100240BB
:100724000010014000080140000C01400014014089
:1007340080B500AF08220349034801F01BFC00BF49
:1007440080BD00BFE00000205400002080B582B0CE
:1007540000AF08227D497E4801F00CFC0023FB71A8
:1007640000233B6023E07B4A3B6832F81330C73BED
:1007740076493A6831F81220934215DC754A3B6891
:1007840032F81330C73371493A6831F81220934272
:100794000ADB714A3B6852F82330802242FA03F3A1
:1007A400DAB2FB791344FB713B6801333B603B686D
:1007B400072BD8DDFB791846FFF7DCFEFB7903F045
:1007C4007E037E2B00F099807E2B00F3B680402BB5
:1007D40000F38C80002BC0F2B080402B00F2AD807F
:1007E40001A252F823F000BFF70800083F090008EF
:1007F4001F0900083F090008170900083F090008FD
:10080400170900083F0900080F0900083F090008FC
:100814003F0900083F0900080F0900083F090008C4
:100824003F0900083F090008270900083F0900089C
:100834003F0900083F0900083F0900083F09000874
:100844003F0900083F090008070900083F0900089C
:100854003F0900083F0900083F0900083F09000854
:100864003F0900083F0900082F0900083F09000854
:100874003F0900083F0900083F0900083F09000834
:100884003F0900083F0900083F0900083F09000824
:100894003F0900083F0900083F0900083F09000814
:1008A4003F0900083F090008270900083F0900081C
:1008B4003F0900083F0900083F0900083F090008F4
:1008C4003F0900083F0900083F0900083F090008E4
:1008D4003F0900083F0900083F0900083F090008D4
:1008E4003F0900083F09000837090008602B1CD0A5
:1008F40023E01A4B00221A7023E0184B01221A70CD
:100904001FE0164B04221A701BE0144B03221A70CA
:1009140017E0124B06221A7013E0104B08221A70CB
:100924000FE00E4B02221A700BE00C4B05221A70DA
:1009340007E00A4B07221A7003E0084B09221A70D9
:1009440000BF00BF0837BD4680BD00BFD0000020F7
:1009540054000020E00000200C000020F0000020E3
:1009640080B400AF024B1B781846BD4680BC70476C
:10097400F000002080B500AF01F0B0F900F040F8BD
:10098400FFF72AFEFFF70AFE00F0ACFD00F004FDBD
:1009940000F04EFD00F0AAFE01F092F801F0BAF862
:1009A40000F02EFE00F0AEFBFFF73AFC00F085F8F5
:1009B4004FF47A71002000F04BFB0021022000F07C
:1009C400F1FA0A21032000F085FA0120FFF772FDF5
:1009D4000120FFF7CFFD00F057FB0346002BFAD0B0
:1009E4004FF40041054802F0F7FCFFF7AFFEFFF7B4
:1009F400B7FF03461846FFF75DFDECE70010014022
:100A040080B596B000AF07F13003282200211846C4
:100A140005F036FA07F11C0300221A605A609A6046
:100A2400DA601A613B1D00221A605A609A60DA602B
:100A34001A615A6101233B634FF480337B630023C3
:100A4400BB6301233B640223FB644FF480333B65A7
:100A54004FF4E0137B6507F13003184602F0D6FC2F
:100A64000346002B01D000F041F80F23FB61022361
:100A74003B6200237B624FF48063BB620023FB6212
:100A840007F11C030221184602F042FF0346002B23
:100A940001D000F02BF802237B604FF40043FB608D
:100AA4003B1D184603F0C2F80346002B01D000F0AA
:100AB4001DF800BF5837BD4680BD80B500AF00F0BB
:100AC400BDFA022000F058FA002000F015F80120C9
:100AD40000F012F8022000F00FF8032000F00CF8E8
:100AE400FFF75CFCFFF724FE00BF80BD80B400AFBD
:100AF40072B600BF00BFFDE780B582B000AF034609
:100B0400FB71FB79054A52F823301946044803F077
:100B1400B1FC00BF0837BD4680BD00BFF45E0008CD
:100B24007402002080B483B000AF03460A46FB7110
:100B34001346BB71BB79642B01D96423BB71FB7968
:100B4400144A52F82330002B04D1134B1B68BA7992
:100B54005A6319E0FB790F4A52F82330042B04D16D
:100B64000D4B1A68BB7993630EE0FB79094A52F87E
:100B74002330082B04D1084B1A68BB79D36303E0F4
:100B8400054B1A68BB79136400BF0C37BD4680BCA3
:100B9400704700BFF45E00087402002080B582B084
:100BA40000AF78607B68002B0BDB01224FF400510F
:100BB4000E4802F0F9FB7B68DBB219460020FFF710
:100BC400B1FF7B68002B0DDA00224FF40051074877
:100BD40002F0EAFB7B68DBB25B42DBB21946002021
:100BE400FFF7A0FF00BF0837BD4680BD00100140DD
:100BF40080B582B000AF78607B68002B0BDB0122EC
:100C04004FF480410E4802F0CFFB7B68DBB21946FB
:100C14000120FFF787FF7B68002B0DDA00224FF4D9
:100C24008041074802F0C0FB7B68DBB25B42DBB269
:100C340019460120FFF776FF00BF0837BD4680BD87
:100C44000010014080B582B000AF78607B68002B53
:100C54000ADB012204210E4802F0A6FB7B68DBB20A
:100C640019460220FFF75EFF7B68002B0CDA002296
:100C74000421074802F098FB7B68DBB25B42DBB2DD
:100C840019460220FFF74EFF00BF0837BD4680BD5E
:100C9400000C014080B582B000AF78607B68002B07
:100CA4000ADB012202210E4802F07EFB7B68DBB2E4
:100CB40019460320FFF736FF7B68002B0CDA00226D
:100CC4000221074802F070FB7B68DBB25B42DBB2B7
:100CD40019460320FFF726FF00BF0837BD4680BD35
:100CE4000008014080B500AF0020FFF757FF002047
:100CF400FFF77EFF0020FFF7A5FF0020FFF7CAFFE4
:100D040000BF80BD80B582B000AF78607868FFF71F
:100D140045FF7868FFF76CFF7868FFF793FF786802
:100D2400FFF7B8FF00BF0837BD4680BD80B582B06D
:100D340000AF78607B685B421846FFF72FFF7B6843
:100D44005B421846FFF754FF7B685B421846FFF787
:100D540079FF7B685B421846FFF79CFF00BF0837AA
:100D6400BD4680BD80B582B000AF78607B685B42D1
:100D74001846FFF713FF7868FFF73AFF7868FFF724
:100D840061FF7B685B421846FFF784FF00BF0837AA
:100D9400BD4680BD80B582B000AF78607868FFF74B
:100DA400FDFE7B685B421846FFF722FF7B685B42CF
:100DB4001846FFF747FF7868FFF76CFF00BF083756
:100DC400BD4680BD80B582B000AF78600020FFF7DB
:100DD400E5FE7868FFF70CFF7868FFF733FF002023
:100DE400FFF758FF00BF0837BD4680BD80B582B00D
:100DF40000AF78607868FFF7D1FE0020FFF7F8FEB7
:100E04000020FFF71FFF7868FFF744FF00BF083793
:100E1400BD4680BD80B582B000AF78607B685B4220
:100E24001846FFF7BBFE0020FFF7E2FE0020FFF7A5
:100E340009FF7B685B421846FFF72CFF00BF0837A9
:100E4400BD4680BD80B582B000AF78600020FFF75A
:100E5400A5FE7B685B421846FFF7CAFE7B685B42CF
:100E64001846FFF7EFFE0020FFF714FF00BF083716
:100E7400BD4680BD80B582B000AF78607B685B42C0
:100E84001846FFF78BFE7B685B421846FFF7B0FEFF
:100E94007868FFF7D7FE7868FFF7FCFE00BF0837D5
:100EA400BD4680BD80B582B000AF78607868FFF73A
:100EB40075FE7868FFF79CFE7B685B421846FFF777
:100EC400C1FE7B685B421846FFF7E4FE00BF0837AB
:100ED400BD4680BD80B582B000AF03463960FB716A
:100EE400FB790A2B43D801A252F823F01D0F000806
:100EF400230F00082B0F0008330F00083B0F0008D6
:100F0400430F00084B0F0008530F00085B0F000845
:100F1400630F00086B0F0008FFF7E4FE27E0386852
:100F2400FFF7F0FE23E03868FFF700FF1FE03868A2
:100F3400FFF718FF1BE03868FFF72CFF17E038684D
:100F4400FFF740FF13E03868FFF750FF0FE0386801
:100F5400FFF760FF0BE03868FFF774FF07E03868BD
:100F6400FFF788FF03E03868FFF79CFF00BF00BF6E
:100F74000837BD4680BD00BF80B582B000AF0346D0
:100F8400FB71FB79054A52F823301946044803F0F3
:100F940071FA00BF0837BD4680BD00BF045F00087A
:100FA400E401002080B485B000AF03460A46FB711B
:100FB4001346BB80BB88B42B01D9B423BB80BB8848
:100FC4006E2202FB03F31A4A82FB03121A44D21163
:100FD400DB17D31A9BB21433FB81FB79154A52F801
:100FE4002330002B04D1144B1B68FA895A6319E08F
:100FF400FB79104A52F82330042B04D10E4B1A68A3
:10100400FB8993630EE0FB790A4A52F82330082BDC
:1010140004D1094B1A68FB89D36303E0064B1A68B1
:10102400FB89136400BF1437BD4680BC704700BF02
:10103400B7600BB6045F0008E401002080B500AF80
:10104400024803F067F900BF80BD00BF54010020CF
:1010540080B483B000AF03460A46FB801346BB80CE
:10106400064ABB881380064AFB881380054B00227E
:101074001A7000BF0C37BD4680BC7047F4000020D6
:10108400F2000020F100002080B400AF084B1B7870
:10109400002B08D0064B00221A70064B1A88064B08
:1010A4001A80012300E000231846BD4680BC704727
:1010B400F1000020F4000020F200002080B582B08E
:1010C40000AF78607B681B68B3F1804F10D10B4B85
:1010D4001B88002B05D0094B1B88013B9AB2074B98
:1010E4001A80064B1B88002B02D1054B01221A7073
:1010F400FFF760F900BF0837BD4680BDF20000204D
:10110400F100002080B500AF174B184A1A60164B47
:101114004FF482725A60144B00229A60124B0022E0
:10112400DA60114B00221A610F4B00225A610E4BF8
:101134004FF480229A610C4B0822DA610A4B002298
:101144001A62094B00225A62074B00229A62064B2C
:101154000A22DA62044802F01FFE0346002B01D083
:10116400FFF7C4FC00BF80BDF80000200030014040
:1011740080B588B000AF786007F1100300221A60D0
:101184005A609A60DA607B681B681B4A93422FD1CD
:101194001A4B9B69194A43F480539361174B9B691B
:1011A40003F48053FB60FB68144B9B69134A43F0C0
:1011B40004039361114B9B6903F00403BB60BB6898
:1011C400B0233B6102237B610323FB6107F110031E
:1011D40019460B4801F054FF40233B6100237B6117
:1011E4000023BB6107F110031946054801F048FFCD
:1011F40000BF2037BD4680BD0030014000100240D2
:101204000008014080B582B000AF78607B681B683D
:10121400094A93420CD1094B1B68013B074A1360EE
:10122400064B1B68002B03D10021054803F0DCF9B1
:1012340000BF0837BD4680BD0004004050010020B7
:101244009C01002080B485B000AF154B9B69144A03
:1012540043F001039361124B9B6903F00103BB60EC
:10126400BB680F4BDB690E4A43F08053D3610C4BD0
:10127400DB6903F080537B607B680A4B5B68FB602F
:10128400FB6823F0E063FB60FB6843F00073FB60E2
:10129400044AFB68536000BF1437BD4680BC7047E6
:1012A400001002400000014080B400AF00BFFDE721
:1012B40080B400AF00BFFDE780B400AF00BFFDE71E
:1012C40080B400AF00BFFDE780B400AF00BFFDE70E
:1012D40080B400AF00BFBD4680BC704780B400AF8F
:1012E40000BFBD4680BC704780B400AF00BFBD46A0
:1012F40080BC704780B500AF00F036FD00BF80BDF4
:1013040080B500AF024801F051FC00BF80BD00BFB2
:101314008400002080B500AF024803F023FA00BF28
:1013240080BD00BF5401002080B500AF024803F027
:1013340019FA00BF80BD00BF9C01002080B500AF3A
:10134400024803F00FFA00BF80BD00BFE401002093
:1013540080B500AF024804F0B1F800BF80BD00BF03
:10136400BC02002080B500AF024804F0A7F800BF1B
:1013740080BD00BF0403002080B500AF024803F025
:10138400F1F900BF80BD00BF2C02002080B400AF83
:1013940000BFBD4680BC704780B586B000AF07F182
:1013A400080300221A605A609A60DA603B46002201
:1013B4001A605A601D4B4FF080421A601B4B472243
:1013C4005A601A4B00229A60184B40F2E732DA60F6
:1013D400164B00221A61154B00229A61134802F041
:1013E40049FF0346002B01D0FFF780FB4FF48053E5
:1013F400BB6007F1080319460C4803F07DFB034664
:10140400002B01D0FFF772FB00233B6000237B60BD
:101414003B461946054803F031FF0346002B01D033
:10142400FFF764FB00BF1837BD4680BD54010020A0
:1014340080B58AB000AF07F1200300221A605A6019
:101444003B1D00221A605A609A60DA601A615A6180
:101454009A61224B224A1A60204B40F2CF225A60F2
:101464001E4B00229A601D4B6322DA601B4B002244
:101474001A611A4B00229A61184802F0ABFF034626
:10148400002B01D0FFF732FB00233B6200237B6279
:1014940007F120031946114803F0F0FE0346002B20
:1014A40001D0FFF723FB60237B600023BB60002394
:1014B400FB6000237B613B1D00221946074803F0B3
:1014C40059FA0346002B01D0FFF710FB034800F044
:1014D4004BFA00BF2837BD4680BD00BF9C010020E9
:1014E4000004004080B58EB000AF07F1280300224D
:1014F4001A605A609A60DA6007F1200300221A60C9
:101504005A603B1D00221A605A609A60DA601A61C0
:101514005A619A61384B394A1A60374B40F29F52EC
:101524005A60354B00229A60334B40F2E732DA605E
:10153400314B00221A61304B00229A612E4802F08E
:1015440099FE0346002B01D0FFF7D0FA4FF48053E5
:10155400BB6207F128031946274803F0CDFA034676
:10156400002B01D0FFF7C2FA234802F033FF0346F1
:10157400002B01D0FFF7BAFA00233B6200237B6201
:1015840007F1200319461C4803F078FE0346002B9C
:1015940001D0FFF7ABFA60237B600023BB6000231C
:1015A400FB6000237B613B1D00221946124803F0B7
:1015B400E1F90346002B01D0FFF798FA3B1D042202
:1015C40019460D4803F0D6F90346002B01D0FFF766
:1015D4008DFA3B1D08221946074803F0CBF9034650
:1015E400002B01D0FFF782FA034800F0BDF900BFD9
:1015F4003837BD4680BD00BFE4010020000800402C
:1016040080B58EB000AF07F1280300221A605A603B
:101614009A60DA6007F1200300221A605A603B1DC9
:1016240000221A605A609A60DA601A615A619A61FB
:101634002C4B2D4A1A602B4B40F2CF225A60294B77
:1016440000229A60274B6322DA60264B00221A613B
:10165400244B00229A61234802F00CFE0346002B1F
:1016640001D0FFF743FA4FF48053BB6207F128031C
:1016740019461C4803F040FA0346002B01D0FFF73B
:1016840035FA184802F0A6FE0346002B01D0FFF7F6
:101694002DFA00233B6200237B6207F120031946E5
:1016A400104803F0EBFD0346002B01D0FFF71EFAB0
:1016B40060237B600023BB600023FB6000237B610D
:1016C4003B1D00221946074803F054F90346002B3A
:1016D40001D0FFF70BFA034800F046F900BF383792
:1016E400BD4680BD2C020020000C004080B592B0A5
:1016F40000AF07F1400300221A605A6007F1240387
:1017040000221A605A609A60DA601A615A619A611A
:101714003B1D20220021184604F0B2FB454B464AEB
:101724001A60444B40F2CF225A60424B00229A6026
:10173400404B6322DA603F4B00221A613D4B00228A
:101744005A613C4B00229A613A4802F043FE034638
:10175400002B01D0FFF7CAF900233B6400237B640C
:1017640007F140031946334803F088FD0346002B74
:1017740001D0FFF7BBF960237B620023BB62002327
:10178400FB6200233B6300237B630023BB630023D2
:10179400FB6307F1240300221946264803F0EAF804
:1017A4000346002B01D0FFF7A1F907F1240304221B
:1017B4001946204803F0DEF80346002B01D0FFF75A
:1017C40095F907F12403082219461A4803F0D2F8C0
:1017D4000346002B01D0FFF789F907F124030C22FB
:1017E4001946144803F0C6F80346002B01D0FFF74E
:1017F4007DF900237B600023BB600023FB60002392
:101804003B6100237B614FF40053BB6100233B62C7
:101814003B1D1946074803F09DFD0346002B01D0EC
:10182400FFF764F9034800F09FF800BF4837BD464E
:1018340080BD00BF740200200034014080B586B032
:1018440000AF78607B681B68B3F1804F14D1264BDE
:10185400DB69254A43F00103D361234BDB6903F0C1
:1018640001037B617B69002200211C2000F04DFFF5
:101874001C2000F066FF32E07B681B681B4A934221
:1018840014D1194BDB69184A43F00403D361164B96
:10189400DB6903F004033B613B69002200211E2045
:1018A40000F033FF1E2000F04CFF18E07B681B683B
:1018B4000F4A934213D10C4BDB690B4A43F00803E4
:1018C400D361094BDB6903F00803FB60FB6800226A
:1018D4000021322000F019FF322000F032FF00BF57
:1018E4001837BD4680BD00BF00100240000800400C
:1018F400000C004080B584B000AF78607B681B6842
:10190400164A934214D1164BDB69154A43F002037D
:10191400D361134BDB6903F00203FB60FB68002215
:1019240000211D2000F0F1FE1D2000F00AFF10E050
:101934007B681B680B4A93420BD1094B9B69084A8D
:1019440043F400539361064B9B6903F40053BB605B
:10195400BB6800BF1037BD4680BD00BF0004004017
:10196400001002400034014080B58CB000AF7860B4
:1019740007F11C0300221A605A609A60DA607B68DF
:101984001B68464A93422AD1454B9B69444A43F01B
:1019940008039361424B9B6903F00803BB61BB6975
:1019A4001023FB6102233B620223BB6207F11C0389
:1019B40019463C4801F064FB3B4B5B68FB62FB6AE5
:1019C40023F44063FB62FB6A43F0E063FB62FB6A5F
:1019D40043F40063FB62344AFB6A53605AE07B6859
:1019E4001B68324A934219D12D4B9B692C4A43F010
:1019F400080393612A4B9B6903F008037B617B69AD
:101A04004FF4E073FB6102233B620223BB6207F1E4
:101A14001C031946234801F033FB3BE07B681B6839
:101A2400234A934218D11E4B9B691D4A43F0040379
:101A340093611B4B9B6903F004033B613B690123E6
:101A4400FB6102233B620223BB6207F11C031946BC
:101A5400184801F015FB1DE07B681B68164A934289
:101A640018D10F4B9B690E4A43F0100393610C4B42
:101A74009B6903F01003FB60FB684FF47073FB6118
:101A840002233B620223BB6207F11C0319460B4885
:101A940001F0F6FA00BF3037BD4680BD00040040B7
:101AA40000100240000C014000000140000800400A
:101AB400000C0040000801400034014000100140C7
:101AC40080B500AF114B124A1A60104B4FF41652F6
:101AD4005A600E4B00229A600C4B0022DA600B4BCA
:101AE40000221A61094B0C225A61084B00229A61A8
:101AF400064B0022DA61054803F08FFC0346002BF5
:101B040001D0FEF7F3FF00BF80BD00BFBC02002080
:101B14000038014080B500AF114B124A1A60104BD7
:101B24004FF416525A600E4B00229A600C4B00225E
:101B3400DA600B4B00221A61094B0C225A61084BE4
:101B440000229A61064B0022DA61054803F065FC25
:101B54000346002B01D0FEF7C9FF00BF80BD00BFC4
:101B6400040300200044004080B58AB000AF7860D0
:101B740007F1180300221A605A609A60DA607B68E1
:101B84001B683F4A93423AD13E4B9B693D4A43F41A
:101B9400804393613B4B9B6903F480437B617B6986
:101BA400384B9B69374A43F004039361354B9B6977
:101BB40003F004033B613B694FF40073BB610223F0
:101BC400FB6103237B6207F1180319462E4801F0D9
:101BD40057FA4FF48063BB610023FB6100233B622F
:101BE40007F118031946284801F04AFA0022002197
:101BF400252000F08AFD252000F0A3FD3CE07B6851
:101C04001B68224A934237D11E4BDB691D4A43F4B9
:101C14000033D3611B4BDB6903F40033FB60FB68C7
:101C2400184B9B69174A43F004039361154B9B6956
:101C340003F00403BB60BB680423BB610223FB61A4
:101C440003237B6207F1180319460F4801F018FAC1
:101C54000823BB610023FB6100233B6207F11803E7
:101C64001946094801F00CFA00220021262000F050
:101C74004CFD262000F065FD00BF2837BD4680BD21
:101C840000380140001002400008014000440040B8
:101C9400FFF77CFB0B480C490C4A002302E0D458A4
:101CA400C4500433C4188C42F9D3094A094C0023A4
:101CB40001E013600432A242FBD304F0E9F8FEF71A
:101CC40059FE70470000002038000020445F0008DF
:101CD4003800002050030020FEE7000080B500AF6C
:101CE400084B1B68074A43F010031360032000F0FD
:101CF40001FD0F2000F008F8FFF7A4FA00231846AE
:101D040080BD00BF0020024080B582B000AF786083
:101D1400124B1A68124B1B7819464FF47A73B3FBB3
:101D2400F1F3B2FBF3F3184600F019FD0346002B60
:101D340001D001230EE07B680F2B0AD800227968BA
:101D44004FF0FF3000F0E1FC064A7B68136000238B
:101D540000E0012318460837BD4680BD2C00002052
:101D6400340000203000002080B400AF054B1B7805
:101D74001A46054B1B681344034A136000BFBD4653
:101D840080BC7047340000204C03002080B400AFB6
:101D9400024B1B681846BD4680BC70474C030020AC
:101DA40080B586B000AF78600023FB7500233B61EB
:101DB4000023BB600023FB607B68002B01D101235F
:101DC400CEE07B689B68002B7B689B6A002B09D163
:101DD4007B680022DA627B68002283F8242078681A
:101DE400FEF75CFA786800F011FB0346FB757B682C
:101DF4009B6A03F01003002B40F0A980FB7D002BAD
:101E040040F0A5807B689B6A23F4885323F0020387
:101E140043F002027B689A627B685A687B681B689D
:101E240051498B420AD17B68DB69B3F5402F02D05C
:101E34007B68DB6904E04FF4002301E07B68DB6925
:101E44001A437B681B7B5B001343BA681343BB6074
:101E54007B689B68B3F5807F03D07B689B68012B0C
:101E640002D14FF4807300E000233A6913433B61CD
:101E74007B681B7D012B19D17B681B7B002B09D14F
:101E84007B689B69013B5A033B69134343F400633A
:101E94003B610BE07B689B6A43F020027B689A629B
:101EA4007B68DB6A43F001027B68DA627B681B684B
:101EB4005B6823F469417B681B683A690A435A608A
:101EC4007B681B689A68294B13407A681268B96862
:101ED4000B4393607B689B68B3F5807F03D07B687A
:101EE4009B68012B04D17B681B69013B1B05FB60CC
:101EF4007B681B68DB6A23F470017B681B68FA68E3
:101F04000A43DA627B681B689A68194B1340BA6803
:101F14009A420BD17B680022DA627B689B6A23F0C9
:101F2400030343F001027B689A6218E07B689B6AB2
:101F340023F0120343F010027B689A627B68DB6A29
:101F440043F001027B68DA620123FB7507E07B68DA
:101F54009B6A43F010027B689A620123FB75FB7D48
:101F640018461837BD4680BD003C0140FDF7E1FF2F
:101F7400FE0E1FFF80B586B000AFF860B9607A60CE
:101F84000023FB75FB681B68644A934204D0FB681A
:101F94001B68634A934206D1604B5B6803F4702369
:101FA400002B40F0B380FB6893F82430012B01D15F
:101FB4000223AEE0FB68012283F82420F86800F0D5
:101FC400CBF90346FB75FB7D002B40F09A80FB6840
:101FD4009B6A23F4706323F0010343F48072FB686B
:101FE4009A62FB681B684E4A934205D14B4B5B686F
:101FF40003F47023002B15D1FB689B6A23F4801231
:10200400FB689A62FB681B685B6803F48063002BBF
:1020140026D0FB689B6A23F4405343F48052FB6848
:102024009A621DE0FB689B6A43F48012FB689A6223
:10203400FB681B68394A934204D0FB681B68384A22
:1020440093420DD1354B5B6803F48063002B07D0BA
:10205400FB689B6A23F4405343F48052FB689A6202
:10206400FB689B6A03F48053002B06D0FB68DB6A91
:1020740023F00602FB68DA6202E0FB680022DA62FF
:10208400FB68002283F82420FB681B6A254A9A62B5
:10209400FB681B6A244ADA62FB681B6A234A1A63D8
:1020A400FB681B686FF002021A60FB681B689A6881
:1020B400FB681B6842F480729A60FB68186AFB68CC
:1020C4001B684C331946BA687B6800F0CBFBFB688D
:1020D4001B689B6803F46023B3F5602F08D1FB6889
:1020E4001B689A68FB681B6842F4A0029A600FE0C0
:1020F400FB681B689A68FB681B6842F480129A604C
:1021040006E0FB68002283F8242001E00123FB752C
:10211400FB7D18461837BD4680BD00BF0024014032
:1021240000280140932400080F2500082B250008EF
:1021340080B483B000AF786000BF0C37BD4680BC6C
:10214400704780B483B000AF786000BF0C37BD46E1
:1021540080BC704780B483B000AF786000BF0C3798
:10216400BD4680BC7047000080B485B000AF786085
:1021740039600023FB730023BB607B6893F8243031
:10218400012B01D10223DCE07B68012283F82420A7
:102194003B685B68062B1CD87B681B68596B3B68E3
:1021A4005A6813469B001344053B1F2202FA03F3AB
:1021B400DB4319403B6818683B685A6813469B0028
:1021C4001344053B00FA03F27B681B680A435A6315
:1021D4003CE03B685B680C2B1CD87B681B68196B64
:1021E4003B685A6813469B001344233B1F2202FAA0
:1021F40003F3DB4319403B6818683B685A6813468D
:102204009B001344233B00FA03F27B681B680A43D8
:102214001A631BE07B681B68D96A3B685A681346DB
:102224009B001344413B1F2202FA03F3DB43194092
:102234003B6818683B685A6813469B001344413B4B
:1022440000FA03F27B681B680A43DA623B681B6886
:10225400092B1CD97B681B68D9683B681A6813462C
:102264005B0013441E3B072202FA03F3DB431940CD
:102274003B6898683B681A6813465B0013441E3B2E
:1022840000FA03F27B681B680A43DA6019E07B6892
:102294001B6819693B681A6813465B0013440722DC
:1022A40002FA03F3DB4319403B6898683B681A68F9
:1022B40013465B00134400FA03F27B681B680A436D
:1022C4001A613B681B68102B03D03B681B68112BF9
:1022D40032D17B681B681D4A934225D17B681B68F9
:1022E4009B6803F40003002B26D17B681B689A6863
:1022F4007B681B6842F400029A603B681B68102BE1
:102304001AD1134B1B68134AA2FB03239A0C1346DE
:102314009B0013445B00BB6002E0BB68013BBB60F5
:10232400BB68002BF9D107E07B689B6A43F020026D
:102334007B689A620123FB737B68002283F8242064
:10234400FB7B18461437BD4680BC7047002401400F
:102354002C00002083DE1B4380B584B000AF78607E
:102364000023FB600023BB607B681B689B6803F051
:102374000103012B40D07B681B689A687B681B684B
:1023840042F001029A601F4B1B681F4AA2FB032301
:102394009B0CBB6002E0BB68013BBB60BB68002BCD
:1023A400F9D1FFF7F3FCF8601FE0FFF7EFFC0246FA
:1023B400FB68D31A022B18D97B681B689B6803F04F
:1023C4000103012B11D07B689B6A43F010027B68E8
:1023D4009A627B68DB6A43F001027B68DA627B689D
:1023E400002283F82420012307E07B681B689B6894
:1023F40003F00103012BD8D1002318461037BD4642
:1024040080BD00BF2C00002083DE1B4380B584B058
:1024140000AF78600023FB607B681B689B6803F057
:102424000103012B2ED17B681B689A687B681B68AB
:1024340022F001029A60FFF7A9FCF8601BE0FFF7A5
:10244400A5FC0246FB68D31A022B14D97B681B68CF
:102454009B6803F00103012B0DD17B689B6A43F059
:1024640010027B689A627B68DB6A43F001027B6836
:10247400DA62012307E07B681B689B6803F00103B1
:10248400012BDCD0002318461037BD4680BD80B533
:1024940084B000AF78607B685B6AFB60FB689B6A12
:1024A40003F05003002B27D1FB689B6A43F40072AE
:1024B400FB689A62FB681B689B6803F46023B3F5AE
:1024C400602F15D1FB681B7B002B11D1FB689B6A25
:1024D40023F48072FB689A62FB689B6A03F480535E
:1024E400002B05D1FB689B6A43F00102FB689A62EA
:1024F400F868FFF71DFE04E0FB681B6A1B6B786835
:10250400984700BF1037BD4680BD80B584B000AF8A
:1025140078607B685B6AFB60F868FFF712FE00BFB7
:102524001037BD4680BD80B584B000AF78607B684D
:102534005B6AFB60FB689B6A43F04002FB689A623B
:10254400FB68DB6A43F00402FB68DA62F868FFF7B1
:1025540001FE00BF1037BD4680BD000080B485B0C9
:1025640000AF78607B6803F00703FB600C4BDB680B
:10257400BB60BA684FF6FF031340BB60FB681A02E6
:10258400BB68134343F0BF6343F40033BB60044AA6
:10259400BB68D36000BF1437BD4680BC704700BF22
:1025A40000ED00E080B400AF044BDB681B0A03F0CD
:1025B40007031846BD4680BC704700BF00ED00E02D
:1025C40080B483B000AF0346FB7197F90730002B4A
:1025D4000BDBFB7903F01F02064997F907305B090F
:1025E400012000FA02F241F8232000BF0C37BD4657
:1025F40080BC704700E100E080B483B000AF0346C4
:102604003960FB7197F90730002B0ADB3B68DAB2BB
:102614000C4997F907301201D2B20B4483F8002316
:102624000AE03B68DAB20849FB7903F00F03043B84
:102634001201D2B20B441A7600BF0C37BD4680BCDF
:10264400704700BF00E100E000ED00E080B489B015
:1026540000AFF860B9607A60FB6803F00703FB61C0
:10266400FB69C3F10703042B28BF0423BB61FB6987
:102674000433062B02D9FB69033B00E000237B6192
:102684004FF0FF32BB6902FA03F3DA43BB681A4026
:102694007B699A404FF0FF317B6901FA03F3D94318
:1026A4007B680B40134318462437BD4680BC7047F3
:1026B40080B582B000AF78607B68013BB3F1807F66
:1026C40001D301230FE00A4A7B68013B53600F21C9
:1026D4004FF0FF30FFF790FF054B00229A60044B48
:1026E40007221A60002318460837BD4680BD00BF84
:1026F40010E000E080B582B000AF78607868FFF742
:102704002DFF00BF0837BD4680BD80B586B000AF41
:102714000346B9607A60FB7300237B61FFF742FFD5
:1027240078617A68B9687869FFF790FF024697F98B
:102734000F3011461846FFF75FFF00BF1837BD463C
:1027440080BD80B582B000AF0346FB7197F90730B6
:102754001846FFF735FF00BF0837BD4680BD80B57A
:1027640082B000AF78607868FFF7A2FF034618468E
:102774000837BD4680BD000080B485B000AF7860E6
:102784000023FB607B68002B01D1012359E07B68A7
:102794001B681A462D4B9A420FD87B681B681A4651
:1027A4002B4B13442B4AA2FB03231B099A007B687F
:1027B4001A647B68284ADA630EE07B681B681A4651
:1027C400264B1344234AA2FB03231B099A007B686C
:1027D4001A647B68224ADA637B68022283F8212028
:1027E4007B681B681B68FB60FB6823F47F5323F042
:1027F4003003FB607B685A687B689B681A437B687C
:10280400DB681A437B681B691A437B685B691A435C
:102814007B689B691A437B68DB691343FA6813433B
:10282400FB607B681B68FA681A607B6800229A6305
:102834007B68012283F821207B68002283F8202012
:10284400002318461437BD4680BC70470704024075
:10285400F8FFFDBFCDCCCCCC00000240F8FBFDBF9F
:102864000004024080B586B000AFF860B9607A60B9
:102874003B600023FB75FB6893F82030012B01D1EA
:1028840002234BE0FB68012283F82020FB6893F8C5
:102894002130DBB2012B3AD1FB68022283F82120DC
:1028A400FB6800229A63FB681B681A68FB681B6854
:1028B40022F001021A603B687A68B968F86800F08F
:1028C400B1FBFB68DB6A002B08D0FB681B681A6845
:1028D400FB681B6842F00E021A600FE0FB681B687D
:1028E4001A68FB681B6822F004021A60FB681B6804
:1028F4001A68FB681B6842F00A021A60FB681B68CE
:102904001A68FB681B6842F001021A6005E0FB6864
:10291400002283F820200223FB75FB7D184618371C
:10292400BD4680BD80B485B000AF78600023FB73E2
:102934007B6893F82130DBB2022B08D07B68042239
:102944009A637B68002283F82020012320E07B68BF
:102954001B681A687B681B6822F00E021A607B6889
:102964001B681A687B681B6822F001021A607B6886
:102974001A6C7B68DB6B012101FA02F25A607B68F6
:10298400012283F821207B68002283F82020FB7B2E
:1029940018461437BD4680BC7047000080B584B02B
:1029A40000AF78600023FB737B6893F82130DBB2BF
:1029B400022B05D07B6804229A630123FB73D6E0C3
:1029C4007B681B681A687B681B6822F00E021A6019
:1029D4007B681B681A687B681B6822F001021A6016
:1029E4007B681B681A46644B9A4258D97B681B68FB
:1029F400624A93424FD07B681B68614A934248D035
:102A04007B681B685F4A934240D07B681B685E4AC0
:102A1400934238D07B681B685C4A934230D07B6811
:102A24001B685B4A934228D07B681B68524A9342D6
:102A340020D07B681B68574A934219D07B681B6877
:102A4400554A934212D07B681B68544A93420AD079
:102A54007B681B68524A934202D14FF480531BE0B7
:102A64004FF4803318E04FF4807315E0102313E023
:102A7400012311E04FF080730EE04FF480130BE05C
:102A84004FF4803308E04FF4805305E04FF4807333
:102A940002E0102300E00123424A536057E07B68C0
:102AA4001B68364A93424FD07B681B68344A934272
:102AB40048D07B681B68334A934240D07B681B68CC
:102AC400314A934238D07B681B68304A934230D0F5
:102AD4007B681B682E4A934228D07B681B68264A71
:102AE400934220D07B681B682A4A934219D07B68A2
:102AF4001B68294A934212D07B681B68274A934279
:102B04000AD07B681B68264A934202D14FF4805353
:102B14001BE04FF4803318E04FF4807315E010236A
:102B240013E0012311E04FF080730EE04FF48013A3
:102B34000BE04FF4803308E04FF4805305E04FF48A
:102B4400807302E0102300E00123174A53607B687E
:102B5400012283F821207B68002283F820207B68EF
:102B64005B6B002B03D07B685B6B78689847FB7BBF
:102B740018461037BD4680BD800002400800024060
:102B84001C00024030000240440002405800024051
:102B94006C000240080402401C040240300402405D
:102BA40044040240000402400000024080B584B0A6
:102BB40000AF78607B68DB6B1B68FB607B681B681D
:102BC4001B68BB607B681B6C04229A40FB68134043
:102BD400002B00F0F180BB6803F00403002B00F02D
:102BE400EB807B681B681B6803F02003002B07D174
:102BF4007B681B681A687B681B6822F004021A60F1
:102C04007B681B681A465F4B9A4258D97B681B68DD
:102C14005D4A93424FD07B681B685C4A934248D01C
:102C24007B681B685A4A934240D07B681B68594AA8
:102C3400934238D07B681B68574A934230D07B68F4
:102C44001B68564A934228D07B681B684D4A9342BE
:102C540020D07B681B68524A934219D07B681B685A
:102C6400504A934212D07B681B684F4A93420AD061
:102C74007B681B684D4A934202D14FF480431BE0AA
:102C84004FF4802318E04FF4806315E0402313E0F1
:102C9400042311E04FF080630EE04FF480030BE057
:102CA4004FF4802308E04FF4804305E04FF4806341
:102CB40002E0402300E004233D4A536057E07B6870
:102CC4001B68314A93424FD07B681B682F4A93425A
:102CD40048D07B681B682E4A934240D07B681B68AF
:102CE4002C4A934238D07B681B682B4A934230D0DD
:102CF4007B681B68294A934228D07B681B68214A59
:102D0400934220D07B681B68254A934219D07B6884
:102D14001B68244A934212D07B681B68224A934260
:102D24000AD07B681B68214A934202D14FF4804346
:102D34001BE04FF4802318E04FF4806315E0402338
:102D440013E0042311E04FF080630EE04FF480039E
:102D54000BE04FF4802308E04FF4804305E04FF488
:102D6400806302E0402300E00423124A53607B683E
:102D7400DB6A002B00F036817B68DB6A7868984751
:102D840030E100BF80000240080002401C00024005
:102D94003000024044000240580002406C000240EF
:102DA400080402401C04024030040240440402406F
:102DB40000040240000002407B681B6C02229A401F
:102DC400FB681340002B00F0DD80BB6803F00203B6
:102DD400002B00F0D7807B681B681B6803F020037E
:102DE400002B0BD17B681B681A687B681B6822F078
:102DF4000A021A607B68012283F821207B681B6821
:102E04001A467B4B9A4258D97B681B68794A93428D
:102E14004FD07B681B68784A934248D07B681B6814
:102E2400764A934240D07B681B68754A934238D0F7
:102E34007B681B68734A934230D07B681B68724A74
:102E4400934228D07B681B68694A934220D07B68F0
:102E54001B686E4A934219D07B681B686C4A934284
:102E640012D07B681B686B4A93420AD07B681B684C
:102E7400694A934202D14FF400531BE04FF40033EC
:102E840018E04FF4007315E0202313E0022311E04F
:102E94004FF000730EE04FF400130BE04FF40033D7
:102EA40008E04FF4005305E04FF4007302E02023E0
:102EB40000E00223594A536057E07B681B684D4A7F
:102EC40093424FD07B681B684B4A934248D07B683F
:102ED4001B684A4A934240D07B681B68484A934225
:102EE40038D07B681B68474A934230D07B681B68A4
:102EF400454A934228D07B681B683D4A934220D0C0
:102F04007B681B68414A934219D07B681B68404A1E
:102F1400934212D07B681B683E4A93420AD07B6876
:102F24001B683D4A934202D14FF400531BE04FF417
:102F3400003318E04FF4007315E0202313E002235C
:102F440011E04FF000730EE04FF400130BE04FF468
:102F5400003308E04FF4005305E04FF4007302E03F
:102F6400202300E002232E4A53607B68002283F86A
:102F740020207B689B6A002B34D07B689B6A78682E
:102F840098472FE07B681B6C08229A40FB6813402B
:102F9400002B28D0BB6803F00803002B23D07B68E8
:102FA4001B681A687B681B6822F00E021A607B6833
:102FB4001A6C7B68DB6B012101FA02F25A607B68B0
:102FC40001229A637B68012283F821207B68002216
:102FD40083F820207B681B6B002B04D07B681B6B61
:102FE4007868984700BF00BF1037BD4680BD00BF5A
:102FF40080000240080002401C00024030000240F1
:1030040044000240580002406C00024008040240A0
:103014001C04024030040240440402400004024004
:103024000000024080B485B000AFF860B9607A60F7
:103034003B60FB681A6CFB68DB6B012101FA02F24E
:103044005A60FB681B683A685A60FB685B68102B1F
:1030540008D1FB681B687A689A60FB681B68BA68C9
:10306400DA6007E0FB681B68BA689A60FB681B6853
:103074007A68DA6000BF1437BD4680BC7047000030
:1030840080B48BB000AF7860396000237B6200238A
:103094003B6279E101227B6A02FA03F3FB613B683C
:1030A4001B68FA691340BB61BA69FB699A4240F034
:1030B40068813B685B68964A93425ED0944A934227
:1030C40075D8944A934258D0924A93426FD8924A00
:1030D400934252D0904A934269D8904A93424CD03A
:1030E4008E4A934263D88E4A934246D08C4A934286
:1030F4005DD8122B2AD8122B59D801A252F823F0EA
:103104007F310008593100086B310008AD310008E7
:10311400B3310008B3310008B3310008B3310008FB
:10312400B3310008B3310008B3310008B3310008EB
:10313400B3310008B3310008B3310008B3310008DB
:10314400B33100086131000875310008754A9342B3
:1031540013D02CE03B68DB683B6229E03B68DB680A
:1031640004333B6224E03B68DB6808333B621FE0C6
:103174003B68DB680C333B621AE03B689B68002BBE
:1031840002D104233B6213E03B689B68012B05D109
:1031940008233B627B68FA691A6109E008233B62F1
:1031A4007B68FA695A6103E000233B6200E000BFD8
:1031B400BB69FF2B01D87B6801E07B6804337B612A
:1031C400BB69FF2B02D87B6A9B0002E07B6A083B49
:1031D4009B003B617B691A680F213B6901FA03F389
:1031E400DB431A40396A3B6901FA03F31A437B69EA
:1031F4001A603B685B6803F08053002B00F0C180C9
:10320400494B9B69484A43F001039361464B9B69D0
:1032140003F00103BB60BB68444A7B6A9B0802332A
:1032240052F82330FB607B6A03F003039B000F22F8
:1032340002FA03F3DB43FA681340FB607B683C4A01
:1032440093421FD07B683B4A934219D07B683A4A29
:10325400934213D07B68394A93420DD07B68384A35
:10326400934207D07B68374A934201D105230AE091
:10327400062308E0042306E0032304E0022302E01B
:10328400012300E000237A6A02F0030292009340D3
:10329400FA681343FB6025497B6A9B080233FA688A
:1032A40041F823203B685B6803F48013002B06D0AD
:1032B400254B9A682449BB6913438B6006E0224B73
:1032C4009A68BB69DB43204913408B603B685B68A9
:1032D40003F40013002B06D01B4BDA681A49BB69B0
:1032E4001343CB6006E0184BDA68BB69DB4316492D
:1032F4001340CB603B685B6803F40033002B25D09C
:10330400114B5A681049BB6913434B6025E000BF59
:1033140000003210000031100000221000002110C3
:1033240000001210000011100010024000000140C3
:1033340000080140000C014000100140001401404D
:1033440000180140001C014000040140154B5A685C
:10335400BB69DB43134913404B603B685B6803F470
:103364008033002B06D00F4B1A680E49BB691343F8
:103374000B6006E00B4B1A68BB69DB430949134039
:103384000B607B6A01337B623B681A687B6A22FAB2
:1033940003F3002B7FF47EAE00BF00BF2C37BD4685
:1033A40080BC70470004014080B483B000AF7860F3
:1033B4000B467B8013467B707B78002B03D07A8886
:1033C4007B681A6103E07B881A047B681A6100BF7A
:1033D4000C37BD4680BC704780B485B000AF7860C0
:1033E4000B467B807B68DB68FB607A88FB68134054
:1033F4001A04FB68D9437B880B401A437B681A6123
:1034040000BF1437BD4680BC7047000080B586B04D
:1034140000AF78607B68002B01D1012372E27B68E6
:103424001B6803F00103002B00F08780924B5B685C
:1034340003F00C03042B0CD08F4B5B6803F00C03DC
:10344400082B12D18C4B5B6803F48033B3F5803FB7
:103454000BD1894B1B6803F40033002B6CD07B68C1
:103464005B68002B68D101234CE27B685B68B3F591
:10347400803F06D1804B1B687F4A43F4803313603E
:103484002EE07B685B68002B0CD17B4B1B687A4A6F
:1034940023F480331360784B1B68774A23F480232A
:1034A40013601DE07B685B68B3F5A02F0CD1724BF1
:1034B4001B68714A43F4802313606F4B1B686E4A88
:1034C40043F4803313600BE06B4B1B686A4A23F4AC
:1034D40080331360684B1B68674A23F480231360AE
:1034E4007B685B68002B13D0FEF750FC386108E062
:1034F400FEF74CFC02463B69D31A642B01D9032323
:1035040000E25D4B1B6803F40033002BF0D014E0A1
:10351400FEF73CFC386108E0FEF738FC02463B69E4
:10352400D31A642B01D90323ECE1534B1B6803F436
:103534000033002BF0D100E000BF7B681B6803F070
:103544000203002B63D04C4B5B6803F00C03002B8D
:103554000BD0494B5B6803F00C03082B1CD1464B82
:103564005B6803F48033002B16D1434B1B6803F0D4
:103574000203002B05D07B681B69012B01D00123BA
:10358400C0E13D4B1B6823F0F8027B685B69DB00FC
:10359400394913430B603AE07B681B69002B20D048
:1035A400364B01221A60FEF7F1FB386108E0FEF7A2
:1035B400EDFB02463B69D31A022B01D90323A1E197
:1035C4002D4B1B6803F00203002BF0D02A4B1B6821
:1035D40023F0F8027B685B69DB00274913430B6027
:1035E40015E0264B00221A60FEF7D0FB386108E094
:1035F400FEF7CCFB02463B69D31A022B01D9032305
:1036040080E11D4B1B6803F00203002BF0D17B68A3
:103614001B6803F00803002B3AD07B689B69002BDE
:1036240019D0174B01221A60FEF7B0FB386108E08D
:10363400FEF7ACFB02463B69D31A022B01D90323E4
:1036440060E10D4B5B6A03F00203002BF0D0012014
:1036540000F0CEFA1CE00A4B00221A60FEF796FB3B
:1036640038610FE0FEF792FB02463B69D31A022B46
:1036740008D9032346E100BF001002400000424283
:1036840080044242924B5B6A03F00203002BE9D1AF
:103694007B681B6803F00403002B00F0A680002362
:1036A400FB758B4BDB6903F08053002B0DD1884BEA
:1036B400DB69874A43F08053D361854BDB6903F0B0
:1036C4008053BB60BB680123FB75824B1B6803F40A
:1036D4008073002B18D17F4B1B687E4A43F48073A0
:1036E4001360FEF753FB386108E0FEF74FFB024618
:1036F4003B69D31A642B01D9032303E1754B1B687F
:1037040003F48073002BF0D07B68DB68012B06D1B7
:103714006F4B1B6A6E4A43F0010313622DE07B6812
:10372400DB68002B0CD16A4B1B6A694A23F0010346
:103734001362674B1B6A664A23F0040313621CE09E
:103744007B68DB68052B0CD1614B1B6A604A43F034
:10375400040313625E4B1B6A5D4A43F00103136268
:103764000BE05B4B1B6A5A4A23F001031362584B6C
:103774001B6A574A23F0040313627B68DB68002B3F
:1037840015D0FEF703FB38610AE0FEF7FFFA0246A4
:103794003B69D31A41F28832934201D90323B1E041
:1037A4004B4B1B6A03F00203002BEED014E0FEF730
:1037B400EDFA38610AE0FEF7E9FA02463B69D31AEA
:1037C40041F28832934201D903239BE0404B1B6AA8
:1037D40003F00203002BEED1FB7D012B05D13C4B02
:1037E400DB693B4A23F08053D3617B68DB69002BA0
:1037F40000F08780364B5B6803F00C03082B61D024
:103804007B68DB69022B46D1334B00221A60FEF73A
:10381400BDFA386108E0FEF7B9FA02463B69D31AEB
:10382400022B01D903236DE0294B1B6803F00073BD
:10383400002BF0D17B681B6AB3F5803F08D1244B81
:103844005B6823F400327B689B68214913434B6017
:103854001F4B5B6823F474127B68196A7B685B6A8C
:103864000B431B4913434B601B4B01221A60FEF7A9
:103874008DFA386108E0FEF789FA02463B69D31AEB
:10388400022B01D903233DE0114B1B6803F00073A5
:10389400002BF0D035E0104B00221A60FEF776FAC8
:1038A400386108E0FEF772FA02463B69D31A022B2C
:1038B40001D9032326E0064B1B6803F00073002B99
:1038C400F0D11EE07B68DB69012B07D1012319E0ED
:1038D4000010024000700040600042420B4B5B68E5
:1038E400FB60FB6803F480327B681B6A9A4206D152
:1038F400FB6803F470127B685B6A9A4201D001236F
:1039040000E0002318461837BD4680BD0010024071
:1039140080B584B000AF786039607B68002B01D13A
:103924000123D0E06A4B1B6803F007033A689A420C
:1039340010D9674B1B6823F0070265493B681343A2
:103944000B60634B1B6803F007033A689A4201D08B
:103954000123B8E07B681B6803F00203002B20D02E
:103964007B681B6803F00403002B05D0594B5B688C
:10397400584A43F4E06353607B681B6803F0080310
:10398400002B05D0534B5B68524A43F46053536099
:10399400504B5B6823F0F0027B689B684D491343EE
:1039A4004B607B681B6803F00103002B40D07B68ED
:1039B4005B68012B07D1474B1B6803F40033002BD2
:1039C40015D101237FE07B685B68022B07D1414B53
:1039D4001B6803F00073002B09D1012373E03D4BF6
:1039E4001B6803F00203002B01D101236BE0394B68
:1039F4005B6823F003027B685B68364913434B60C2
:103A0400FEF7C4F9F8600AE0FEF7C0F90246FB6865
:103A1400D31A41F28832934201D9032353E02D4B48
:103A24005B6803F00C027B685B689B009A42EBD1F5
:103A3400274B1B6803F007033A689A4210D2244BC1
:103A44001B6823F0070222493B6813430B60204B99
:103A54001B6803F007033A689A4201D0012332E05D
:103A64007B681B6803F00403002B08D0194B5B68C8
:103A740023F4E0627B68DB68164913434B607B6880
:103A84001B6803F00803002B09D0124B5B6823F476
:103A940060527B681B69DB000E4913434B6000F0E6
:103AA40021F802460B4B5B681B0903F00F030A491C
:103AB400CB5C22FA03F3094A1360094B1B681846CE
:103AC400FEF722F9002318461037BD4680BD00BF1B
:103AD4000020024000100240105F00082C0000206B
:103AE4003000002080B487B000AF0023FB600023C7
:103AF400BB6000237B6100237B6000233B611E4B82
:103B04005B68FB60FB6803F00C03042B02D0082BFA
:103B140003D027E0194B3B6127E0FB689B0C03F0C3
:103B24000F03174AD35C7B60FB6803F48033002BDC
:103B340010D0114B5B685B0C03F00103114AD35C9A
:103B4400BB607B680D4A03FB02F2BB68B2FBF3F374
:103B54007B6104E07B680C4A02FB03F37B617B69B5
:103B64003B6102E0054B3B6100BF3B6918461C37D3
:103B7400BD4680BC704700BF0010024000127A00AE
:103B8400285F0008385F000800093D0080B400AFDA
:103B9400024B1B681846BD4680BC70472C000020B1
:103BA40080B500AFFFF7F2FF0246054B5B681B0AC6
:103BB40003F007030349CB5C22FA03F3184680BDE4
:103BC40000100240205F000880B500AFFFF7DEFF61
:103BD4000246054B5B68DB0A03F007030349CB5C31
:103BE40022FA03F3184680BD00100240205F00084B
:103BF40080B485B000AF78600A4B1B680A4AA2FB08
:103C040003235B0A7A6802FB03F3FB6000BFFB68D3
:103C14005A1EFA60002BF9D100BF00BF1437BD460D
:103C240080BC70472C000020D34D621080B586B054
:103C340000AF786000233B610023FB607B681B6856
:103C440003F00103002B7DD00023FB754F4BDB6990
:103C540003F08053002B0DD14C4BDB694B4A43F0EE
:103C64008053D361494BDB6903F08053BB60BB686D
:103C74000123FB75464B1B6803F48073002B18D19A
:103C8400434B1B68424A43F480731360FEF77EF88B
:103C9400386108E0FEF77AF802463B69D31A642BD0
:103CA40001D903236DE03A4B1B6803F48073002BA6
:103CB400F0D0364B1B6A03F44073FB60FB68002BA7
:103CC4002ED07B685B6803F44073FA689A4227D06D
:103CD4002E4B1B6A23F44073FB602E4B01221A60A7
:103CE4002C4B00221A60294AFB681362FB6803F01C
:103CF4000103002B14D0FEF749F838610AE0FEF7FF
:103D040045F802463B69D31A41F28832934201D9FD
:103D1400032336E01D4B1B6A03F00203002BEED095
:103D24001A4B1B6A23F440727B685B681749134380
:103D34000B62FB7D012B05D1144BDB69134A23F085
:103D44008053D3617B681B6803F00203002B08D007
:103D54000E4B5B6823F440427B689B680B4913431A
:103D64004B607B681B6803F01003002B08D0074BE3
:103D74005B6823F480027B685B69044913434B60EE
:103D8400002318461837BD4680BD00BF001002400E
:103D9400007000404004424280B582B000AF7860B9
:103DA4007B68002B01D1012376E07B685B6A002BE2
:103DB40008D17B685B68B3F5827F09D07B680022F9
:103DC400DA6105E07B6800221A617B6800225A618F
:103DD4007B6800229A627B6893F85130DBB2002B37
:103DE40006D17B68002283F850207868FDF7C0F97B
:103DF4007B68022283F851207B681B681A687B6801
:103E04001B6822F040021A607B685B6803F48272CC
:103E14007B689B6803F404431A437B68DB6803F400
:103E240000631A437B681B6903F002031A437B682F
:103E34005B6903F001031A437B689B6903F4007315
:103E44001A437B68DB6903F038031A437B681B6AF7
:103E540003F0800342EA03017B689B6A03F4005287
:103E64007B681B680A431A607B689B691A0C7B6831
:103E74001B6802F004025A607B681B68DA697B687D
:103E84001B6822F40062DA617B6800225A657B6851
:103E9400012283F85120002318460837BD4680BD0F
:103EA40080B588B000AFF860B9603B601346FB8012
:103EB4000023FB77FB6893F85030012B01D10223D8
:103EC4002DE1FB68012283F85020FDF75FFFB86104
:103ED400FB88FB82FB6893F85130DBB2012B02D0E4
:103EE4000223FB7716E1BB68002B02D0FB88002B72
:103EF40002D10123FB770DE1FB68032283F85120F3
:103F0400FB6800225A65FB68BA681A63FB68FA8882
:103F14009A86FB68FA88DA86FB6800229A63FB6853
:103F240000229A87FB680022DA87FB6800225A6421
:103F3400FB6800221A64FB689B68B3F5004F0FD13D
:103F4400FB681B681A68FB681B6822F040021A6051
:103F5400FB681B681A68FB681B6842F480421A609D
:103F6400FB681B681B6803F04003402B07D0FB6809
:103F74001B681A68FB681B6842F040021A60FB6801
:103F8400DB68B3F5006F4FD1FB685B68002B02D090
:103F9400FB8A012B42D1FB681B6B1A88FB681B68E8
:103FA400DA60FB681B6B9A1CFB681A63FB68DB8E88
:103FB4009BB2013B9AB2FB68DA862FE0FB681B6870
:103FC4009B6803F00203022B12D1FB681B6B1A8857
:103FD400FB681B68DA60FB681B6B9A1CFB681A633E
:103FE400FB68DB8E9BB2013B9AB2FB68DA8615E074
:103FF400FDF7CCFE0246BB69D31A3A689A4203D84D
:104004003B68B3F1FF3F02D13B68002B06D1032389
:10401400FB77FB68012283F851207BE0FB68DB8E91
:104024009BB2002BCAD150E0FB685B68002B02D026
:10403400FB8A012B44D1FB681A6BFB681B680C33A9
:1040440012781A70FB681B6B5A1CFB681A63FB68B6
:10405400DB8E9BB2013B9AB2FB68DA8630E0FB68E8
:104064001B689B6803F00203022B13D1FB681A6BD5
:10407400FB681B680C3312781A70FB681B6B5A1CA4
:10408400FB681A63FB68DB8E9BB2013B9AB2FB6848
:10409400DA8615E0FDF77AFE0246BB69D31A3A6860
:1040A4009A4203D83B68B3F1FF3F02D13B68002B2F
:1040B40006D10323FB77FB68012283F8512029E012
:1040C400FB68DB8E9BB2002BC9D1BA693968F868EA
:1040D40000F0B2F80346002B02D0FB6820225A6598
:1040E400FB689B68002B0AD100233B61FB681B68BB
:1040F400DB683B61FB681B689B683B613B69FB6851
:104104005B6D002B02D00123FB7703E0FB680122E7
:1041140083F85120FB68002283F85020FB7F184667
:104124002037BD4680BD000080B588B000AFF86080
:10413400B9603B601346FB71FDF728FE0246BB6A7B
:104144009B1A3A681344FB61FDF720FEB861394BB2
:104154001B685B011B0DFA6902FB03F37B6154E0EE
:104164003B68B3F1FF3F50D0FDF710FE0246BB6938
:10417400D31AFA699A4202D9FB69002B3DD1FB6834
:104184001B685A68FB681B6822F0E0025A60FB68EF
:104194005B68B3F5827F11D1FB689B68B3F5004F70
:1041A40004D0FB689B68B3F5806F07D1FB681B687C
:1041B4001A68FB681B6822F040021A60FB689B6A5D
:1041C400B3F5005F0FD1FB681B681A68FB681B68B6
:1041D40022F400521A60FB681B681A68FB681B68AB
:1041E40042F400521A60FB68012283F85120FB68F4
:1041F400002283F85020032317E07B69002B01D1B0
:104204000023FB617B69013B7B61FB681B689A6847
:10421400BB681340BA689A420CBF01230023DBB287
:104224001A46FB799A429BD1002318462037BD4693
:1042340080BD00BF2C00002080B586B002AFF860BE
:10424400B9607A607B680093BB6800228021F868BB
:10425400FFF76AFF0346002B07D0FB685B6D43F052
:104264002002FB685A65032300E000231846103738
:10427400BD4680BD80B582B000AF78607B68002BFE
:1042840001D1012341E07B6893F83D30DBB2002B80
:1042940006D17B68002283F83C207868FDF7CEFACB
:1042A4007B68022283F83D207B681A687B680433AC
:1042B4001946104600F002FD7B68012283F846206F
:1042C4007B68012283F83E207B68012283F83F202B
:1042D4007B68012283F840207B68012283F8412017
:1042E4007B68012283F842207B68012283F8432003
:1042F4007B68012283F844207B68012283F84520EF
:104304007B68012283F83D20002318460837BD4608
:1043140080BD000080B485B000AF78607B6893F8FE
:104324003D30DBB2012B01D0012344E07B68022243
:1043340083F83D207B681B68DA687B681B6842F061
:104344000102DA607B681B681D4A934218D07B68BF
:104354001B681C4A934213D07B681B68B3F1804FDF
:104364000ED07B681B68184A934209D07B681B688F
:10437400164A934204D07B681B68154A934211D1B4
:104384007B681B689B6803F00703FB60FB68062BD4
:1043940010D07B681B681A687B681B6842F00102B6
:1043A4001A6007E07B681B681A687B681B6842F028
:1043B40001021A60002318461437BD4680BC7047BA
:1043C400002C01400034014000040040000800407B
:1043D400000C004080B582B000AF78607B68002B91
:1043E40001D1012341E07B6893F83D30DBB2002B1F
:1043F40006D17B68002283F83C207868FDF77AFABE
:104404007B68022283F83D207B681A687B6804334A
:104414001946104600F052FC7B68012283F84620BE
:104424007B68012283F83E207B68012283F83F20C9
:104434007B68012283F840207B68012283F84120B5
:104444007B68012283F842207B68012283F84320A1
:104454007B68012283F844207B68012283F845208D
:104464007B68012283F83D20002318460837BD46A7
:1044740080BD000080B584B000AF786039603B68CF
:10448400002B09D17B6893F83E30DBB2012B14BFBB
:1044940001230023DBB222E03B68042B09D17B68B3
:1044A40093F83F30DBB2012B14BF01230023DBB2AE
:1044B40015E03B68082B09D17B6893F84030DBB2E8
:1044C400012B14BF01230023DBB208E07B6893F8BF
:1044D4004130DBB2012B14BF01230023DBB2002BDC
:1044E40001D0012372E03B68002B04D17B680222D7
:1044F40083F83E2013E03B68042B04D17B6802223E
:1045040083F83F200BE03B68082B04D17B68022230
:1045140083F8402003E07B68022283F841207B6813
:104524001B6801223968184600F084FE7B681B680A
:10453400284A934204D07B681B68274A934201D1DE
:10454400012300E00023002B07D07B681B685A6C12
:104554007B681B6842F400425A647B681B681D4AEE
:10456400934218D07B681B681B4A934213D07B6824
:104574001B68B3F1804F0ED07B681B68174A9342C7
:1045840009D07B681B68164A934204D07B681B6879
:10459400144A934211D17B681B689B6803F007039C
:1045A400FB60FB68062B10D07B681B681A687B686D
:1045B4001B6842F001021A6007E07B681B681A68F6
:1045C4007B681B6842F001021A600023184610370A
:1045D400BD4680BD002C0140003401400004004071
:1045E40000080040000C004080B584B000AF786043
:1045F40039600023FB733B680C2B41D801A252F8AD
:1046040023F000BF3D4600088546000885460008A3
:10461400854600084F460008854600088546000880
:10462400854600086146000885460008854600085E
:1046340085460008734600087B681B68DA687B6857
:104644001B6822F00202DA601DE07B681B68DA68EE
:104654007B681B6822F00402DA6014E07B681B6844
:10466400DA687B681B6822F00802DA600BE07B687A
:104674001B68DA687B681B6822F01002DA6002E0CB
:104684000123FB7300BFFB7B002B61D17B681B689C
:1046940000223968184600F0CDFD7B681B682F4A5C
:1046A400934204D07B681B682D4A934201D10123B5
:1046B40000E00023002B17D07B681B681A6A41F2C4
:1046C40011131340002B0FD17B681B681A6A40F248
:1046D40044431340002B07D17B681B685A6C7B68EA
:1046E4001B6822F400425A647B681B681A6A41F210
:1046F40011131340002B0FD17B681B681A6A40F218
:1047040044431340002B07D17B681B681A687B68FD
:104714001B6822F001021A603B68002B04D17B68FD
:10472400012283F83E2013E03B68042B04D17B680C
:10473400012283F83F200BE03B68082B04D17B68FF
:10474400012283F8402003E07B68012283F84120A2
:10475400FB7B18461037BD4680BD00BF002C0140CE
:104764000034014080B582B000AF78607B681B687C
:104774001B6903F00203022B22D17B681B68DB68F0
:1047840003F00203022B1BD17B681B686FF002024B
:104794001A617B6801221A777B681B689B6903F0A6
:1047A4000303002B03D0786800F076FA05E07868FC
:1047B40000F069FA7868FCF725FD7B6800221A7717
:1047C4007B681B681B6903F00403042B22D17B68FC
:1047D4001B68DB6803F00403042B1BD17B681B6894
:1047E4006FF004021A617B6802221A777B681B68E7
:1047F4009B6903F44073002B03D0786800F04CFAF3
:1048040005E0786800F03FFA7868FCF7FBFC7B6809
:1048140000221A777B681B681B6903F00803082BC6
:1048240022D17B681B68DB6803F00803082B1BD1CB
:104834007B681B686FF008021A617B6804221A7790
:104844007B681B68DB6903F00303002B03D07868E3
:1048540000F022FA05E0786800F015FA7868FCF7B1
:10486400D1FC7B6800221A777B681B681B6903F004
:104874001003102B22D17B681B68DB6803F0100344
:10488400102B1BD17B681B686FF010021A617B68C8
:1048940008221A777B681B68DB6903F44073002BDA
:1048A40003D0786800F0F8F905E0786800F0EBF9D7
:1048B4007868FCF7A7FC7B6800221A777B681B6882
:1048C4001B6903F00103012B0ED17B681B68DB68B5
:1048D40003F00103012B07D17B681B686FF0010211
:1048E4001A617868FCF7EAFB7B681B681B6903F0B4
:1048F4008003802B0ED17B681B68DB6803F0800388
:10490400802B07D17B681B686FF080021A6178687E
:1049140000F07AFD7B681B681B6903F04003402BA1
:104924000ED17B681B68DB6803F04003402B07D182
:104934007B681B686FF040021A61786800F0B5F973
:104944007B681B681B6903F02003202B0ED17B6856
:104954001B68DB6803F02003202B07D17B681B68EE
:104964006FF020021A61786800F045FD00BF083737
:10497400BD4680BD80B586B000AFF860B9607A608E
:104984000023FB75FB6893F83C30012B01D1022313
:10499400AEE0FB68012283F83C207B680C2B00F21C
:1049A4009F8001A252F823F0E1490008E54A00087B
:1049B400E54A0008E54A0008214A0008E54A0008DB
:1049C400E54A0008E54A0008634A0008E54A000889
:1049D400E54A0008E54A0008A34A0008FB681B688A
:1049E400B968184600F0E4F9FB681B689A69FB682B
:1049F4001B6842F008029A61FB681B689A69FB68AD
:104A04001B6822F004029A61FB681B689969BB6801
:104A14001A69FB681B680A439A6164E0FB681B68B7
:104A2400B968184600F034FAFB681B689A69FB6899
:104A34001B6842F400629A61FB681B689A69FB6810
:104A44001B6822F480629A61FB681B689969BB68E1
:104A54001B691A02FB681B680A439A6143E0FB68FE
:104A64001B68B968184600F087FAFB681B68DA69A6
:104A7400FB681B6842F00802DA61FB681B68DA69AC
:104A8400FB681B6822F00402DA61FB681B68D969C1
:104A9400BB681A69FB681B680A43DA6123E0FB6898
:104AA4001B68B968184600F0DBFAFB681B68DA6912
:104AB400FB681B6842F40062DA61FB681B68DA6910
:104AC400FB681B6822F48062DA61FB681B68D969A1
:104AD400BB681B691A02FB681B680A43DA6102E0BF
:104AE4000123FB7500BFFB68002283F83C20FB7D9B
:104AF40018461837BD4680BD80B584B000AF7860D5
:104B040039600023FB737B6893F83C30012B01D19F
:104B14000223B4E07B68012283F83C207B680222F4
:104B240083F83D207B681B689B68BB60BB6823F0EF
:104B34007703BB60BB6823F47F43BB607B681B685F
:104B4400BA689A603B681B68B3F5005F3ED0B3F562
:104B5400005F00F28780B3F5805F00F08680B3F5D4
:104B6400805F7FD8702B1AD0702B7BD8602B50D0ED
:104B7400602B77D8502B3CD0502B73D8402B58D077
:104B8400402B6FD8302B64D0302B6BD8202B60D0C7
:104B9400202B67D8002B5CD0102B5AD062E07B68A6
:104BA40018683B6899683B685A683B68DB6800F0A2
:104BB40022FB7B681B689B68BB60BB6843F0770380
:104BC400BB607B681B68BA689A604FE07B681868B2
:104BD4003B6899683B685A683B68DB6800F00BFBEC
:104BE4007B681B689A687B681B6842F480429A6001
:104BF4003CE07B6818683B6859683B68DB681A4688
:104C040000F082FA7B681B685021184600F0D9FA3C
:104C14002CE07B6818683B6859683B68DB681A4677
:104C240000F0A0FA7B681B686021184600F0C9FAFE
:104C34001CE07B6818683B6859683B68DB681A4667
:104C440000F062FA7B681B684021184600F0B9FA4C
:104C54000CE07B681A683B681B681946104600F034
:104C6400B0FA03E00123FB7300E000BF7B6801227C
:104C740083F83D207B68002283F83C20FB7B1846A8
:104C84001037BD4680BD80B483B000AF786000BFEC
:104C94000C37BD4680BC704780B483B000AF7860E9
:104CA40000BF0C37BD4680BC704780B483B000AFF2
:104CB400786000BF0C37BD4680BC704780B485B0B7
:104CC40000AF786039607B681B68FB607B68334A9F
:104CD400934213D07B68324A93420FD07B68B3F17E
:104CE400804F0BD07B682F4A934207D07B682E4AB3
:104CF400934203D07B682D4A934208D1FB6823F08A
:104D04007003FB603B685B68FA681343FB607B6875
:104D1400224A934213D07B68214A93420FD07B6886
:104D2400B3F1804F0BD07B681E4A934207D07B6857
:104D34001D4A934203D07B681C4A934208D1FB6806
:104D440023F44073FB603B68DB68FA681343FB6041
:104D5400FB6823F080023B685B691343FB607B685C
:104D6400FA681A603B689A687B68DA623B681A687A
:104D74007B689A627B68094A934203D07B68084A3D
:104D8400934203D13B681A697B681A637B680122EA
:104D94005A6100BF1437BD4680BC7047002C0140E7
:104DA400003401400004004000080040000C0040B2
:104DB40080B487B000AF786039607B681B6A7B6120
:104DC4007B681B6A23F001027B681A627B685B685C
:104DD4003B617B689B69FB60FB6823F07003FB60AD
:104DE400FB6823F00303FB603B681B68FA6813430A
:104DF400FB607B6923F002037B613B689B687A69F3
:104E040013437B617B68204A934203D07B681F4A2B
:104E140093420CD17B6923F008037B613B68DB6818
:104E24007A6913437B617B6923F004037B617B68AC
:104E3400154A934203D07B68144A934211D13B69CB
:104E440023F480733B613B6923F400733B613B684B
:104E54005B693A6913433B613B689B693A69134355
:104E64003B617B683A695A607B68FA689A613B687F
:104E74005A687B685A637B687A691A6200BF1C3778
:104E8400BD4680BC704700BF002C01400034014087
:104E940080B487B000AF786039607B681B6A7B613F
:104EA4007B681B6A23F010027B681A627B685B686C
:104EB4003B617B689B69FB60FB6823F4E043FB6018
:104EC400FB6823F44073FB603B681B681B02FA68B1
:104ED4001343FB607B6923F020037B613B689B6881
:104EE4001B017A6913437B617B68214A934203D097
:104EF4007B68204A93420DD17B6923F080037B6158
:104F04003B68DB681B017A6913437B617B6923F08F
:104F140040037B617B68164A934203D07B68154A41
:104F2400934213D13B6923F480633B613B6923F4CF
:104F340000633B613B685B699B003A6913433B61D7
:104F44003B689B699B003A6913433B617B683A6900
:104F54005A607B68FA689A613B685A687B689A630E
:104F64007B687A691A6200BF1C37BD4680BC7047F3
:104F7400002C01400034014080B487B000AF786059
:104F840039607B681B6A7B617B681B6A23F48072CF
:104F94007B681A627B685B683B617B68DB69FB60EA
:104FA400FB6823F07003FB60FB6823F00303FB60E2
:104FB4003B681B68FA681343FB607B6923F4007346
:104FC4007B613B689B681B027A6913437B617B6846
:104FD400214A934203D07B68204A93420DD17B69D6
:104FE40023F400637B613B68DB681B027A6913432B
:104FF4007B617B6923F480637B617B68164A9342FF
:1050040003D07B68154A934213D13B6923F4805340
:105014003B613B6923F400533B613B685B691B01C3
:105024003A6913433B613B689B691B013A6913432B
:105034003B617B683A695A607B68FA68DA613B686D
:105044005A687B68DA637B687A691A6200BF1C3726
:10505400BD4680BC704700BF002C014000340140B5
:1050640080B487B000AF786039607B681B6A3B61AD
:105074007B681B6A23F480527B681A627B685B68D6
:105084007B617B68DB69FB60FB6823F4E043FB60C6
:10509400FB6823F44073FB603B681B681B02FA68DF
:1050A4001343FB603B6923F400533B613B689B68FB
:1050B4001B033A6913433B617B68114A934203D053
:1050C4007B68104A934209D17B6923F480437B6156
:1050D4003B685B699B017A6913437B617B687A69EE
:1050E4005A607B68FA68DA613B685A687B681A64BC
:1050F4007B683A691A6200BF1C37BD4680BC7047A2
:10510400002C01400034014080B487B000AFF86047
:10511400B9607A60FB681B6A7B61FB681B6A23F0D9
:105124000102FB681A62FB689B693B613B6923F0DF
:10513400F0033B617B681B013A6913433B617B6964
:1051440023F00A037B617A69BB6813437B61FB68C4
:105154003A699A61FB687A691A6200BF1C37BD46D6
:1051640080BC704780B487B000AFF860B9607A60E3
:10517400FB681B6A7B61FB681B6A23F01002FB68F7
:105184001A62FB689B693B613B6923F470433B6192
:105194007B681B033A6913433B617B6923F0A003DB
:1051A4007B61BB681B017A6913437B61FB683A69C5
:1051B4009A61FB687A691A6200BF1C37BD4680BCDD
:1051C400704780B485B000AF786039607B689B68B5
:1051D400FB60FB6823F07003FB603A68FB681343D1
:1051E40043F00703FB607B68FA689A6000BF1437DA
:1051F400BD4680BC704780B487B000AFF860B9602A
:105204007A603B60FB689B687B617B6923F47F4326
:105214007B613B681A027B681A43BB6813437A6953
:1052240013437B61FB687A699A6000BF1C37BD46F3
:1052340080BC704780B487B000AFF860B9607A6012
:10524400BB6803F01F03012202FA03F37B61FB68CE
:105254001A6A7B69DB431A40FB681A62FB681A6AA4
:10526400BB6803F01F03796801FA03F31A43FB6870
:105274001A6200BF1C37BD4680BC704780B485B03D
:1052840000AF786039607B6893F83C30012B01D122
:10529400022350E07B68012283F83C207B680222D1
:1052A40083F83D207B681B685B68FB607B681B6838
:1052B4009B68BB60FB6823F07003FB603B681B6862
:1052C400FA681343FB607B681B68FA685A607B6862
:1052D4001B681B4A934218D07B681B68194A934287
:1052E40013D07B681B68B3F1804F0ED07B681B68BA
:1052F400154A934209D07B681B68144A934204D030
:105304007B681B68124A93420CD1BB6823F080036C
:10531400BB603B685B68BA681343BB607B681B680F
:10532400BA689A607B68012283F83D207B6800227A
:1053340083F83C20002318461437BD4680BC7047D0
:10534400002C0140003401400004004000080040EB
:10535400000C004080B485B000AF78603960002351
:10536400FB607B6893F83C30012B01D102233DE0C4
:105374007B68012283F83C20FB6823F0FF023B6832
:10538400DB681343FB60FB6823F440723B689B6853
:105394001343FB60FB6823F480623B685B68134340
:1053A400FB60FB6823F400623B681B681343FB60EB
:1053B400FB6823F480523B681B691343FB60FB6862
:1053C40023F400523B685B691343FB60FB6823F4DE
:1053D40080423B68DB691343FB607B681B68FA68A7
:1053E4005A647B68002283F83C2000231846143753
:1053F400BD4680BC704780B483B000AF786000BF06
:105404000C37BD4680BC704780B483B000AF786071
:1054140000BF0C37BD4680BC704780B582B000AF7A
:1054240078607B68002B01D1012342E07B6893F80C
:105434004130DBB2002B06D17B68002283F8402088
:105444007868FCF791FB7B68242283F841207B6811
:105454001B68DA687B681B6822F40052DA6078689B
:1054640000F080FC7B681B681A697B681B6822F467
:1054740090421A617B681B685A697B681B6822F03A
:105484002A025A617B681B68DA687B681B6842F4ED
:105494000052DA607B6800225A647B68202283F819
:1054A40041207B68202283F842207B6800225A63D3
:1054B400002318460837BD4680BD000080B5BAB049
:1054C40000AF78607B681B681B68C7F8E4307B68B2
:1054D4001B68DB68C7F8E0307B681B685B69C7F84A
:1054E400DC300023C7F8D8300023C7F8D430D7F80D
:1054F400E43003F00F03C7F8D830D7F8D830002BC6
:105504000FD1D7F8E43003F02003002B09D0D7F8EB
:10551400E03003F02003002B03D0786800F063FB35
:105524005BE2D7F8D830002B00F0DE80D7F8DC300F
:1055340003F00103002B06D1D7F8E03003F4907395
:10554400002B00F0D180D7F8E43003F00103002BE6
:105554000BD0D7F8E03003F48073002B05D07B68C0
:105564005B6C43F001027B685A64D7F8E43003F0C3
:105574000403002B0BD0D7F8DC3003F00103002B1D
:1055840005D07B685B6C43F002027B685A64D7F8F1
:10559400E43003F00203002B0BD0D7F8DC3003F027
:1055A4000103002B05D07B685B6C43F004027B682D
:1055B4005A64D7F8E43003F00803002B11D0D7F86D
:1055C400E03003F02003002B05D1D7F8DC3003F0E2
:1055D4000103002B05D07B685B6C43F008027B68F9
:1055E4005A647B685B6C002B00F0F281D7F8E430DE
:1055F40003F02003002B08D0D7F8E03003F0200399
:10560400002B02D0786800F0EEFA7B681B685B69B7
:1056140003F04003002B14BF01230023DBB2C7F8BF
:10562400D4307B685B6C03F00803002B03D1D7F8FC
:10563400D430002B4FD0786800F0F8F97B681B68F1
:105644005B6903F04003002B41D07B681B68143373
:10565400C7F89C30D7F89C3053E8003FC7F898301F
:10566400D7F8983023F04003C7F8D0307B681B6824
:105674001433D7F8D020C7F8A820C7F8A430D7F837
:10568400A410D7F8A82041E80023C7F8A030D7F821
:10569400A030002BD9D17B68DB6B002B13D07B6847
:1056A400DB6B7E4A5A637B68DB6B1846FDF776F941
:1056B4000346002B16D07B68DB6B5B6B7A68D26B7E
:1056C400104698470EE0786800F09CF90AE0786884
:1056D40000F098F906E0786800F094F97B680022FD
:1056E4005A6475E100BF73E17B681B6B012B40F0CA
:1056F4004F81D7F8E43003F01003002B00F0488109
:10570400D7F8E03003F01003002B00F041810023B0
:10571400BB607B681B681B68BB607B681B685B683D
:10572400BB60BB687B681B685B6903F04003002BAC
:1057340000F0B6807B68DB6B1B685B68A7F8BE3043
:10574400B7F8BE30002B00F045817B689B8DB7F81D
:10575400BE209A4280F03E817B68B7F8BE20DA858D
:105764007B68DB6B9B69202B00F088807B681B685F
:105774000C33C7F88830D7F8883053E8003FC7F8AF
:105784008430D7F8843023F48073C7F8B8307B684A
:105794001B680C33D7F8B820C7F89420C7F89030AA
:1057A400D7F89010D7F8942041E80023C7F88C303C
:1057B400D7F88C30002BD9D17B681B6814337B67F6
:1057C4007B6F53E8003F3B673B6F23F00103C7F84F
:1057D400B4307B681B681433D7F8B420C7F8802032
:1057E400FB67F96FD7F8802041E80023BB67BB6FE4
:1057F400002BE1D17B681B6814333B663B6E53E896
:10580400003FFB65FB6D23F04003C7F8B0307B68B5
:105814001B681433D7F8B020FA66BB66B96EFA6E0B
:1058240041E800237B667B6E002BE3D17B6820225A
:1058340083F842207B6800221A637B681B680C3360
:10584400FB64FB6C53E8003FBB64BB6C23F01003A8
:10585400C7F8AC307B681B680C33D7F8AC20BA654A
:105864007B65796DBA6D41E800233B653B6D002B88
:10587400E3D17B68DB6B1846FDF754F87B680222A2
:105884005A637B689A8D7B68DB8D9BB2D31A9BB27B
:105894001946786800F0BFF89CE000BFF55A00088C
:1058A4007B689A8D7B68DB8D9BB2D31AA7F8CE30C8
:1058B4007B68DB8D9BB2002B00F08E80B7F8CE3076
:1058C400002B00F089807B681B680C33BB63BB6BC7
:1058D40053E8003F7B637B6B23F49073C7F8C830B5
:1058E4007B681B680C33D7F8C8207A643B64396C36
:1058F4007A6C41E80023FB63FB6B002BE3D17B68EC
:105904001B6814337B627B6A53E8003F3B623B6A4B
:1059140023F00103C7F8C4307B681B681433D7F83D
:10592400C4203A63FB62F96A3A6B41E80023BB6224
:10593400BB6A002BE3D17B68202283F842207B687A
:1059440000221A637B681B680C333B613B6953E894
:10595400003FFB60FB6823F01003C7F8C0307B688E
:105964001B680C33D7F8C020FA61BB61B969FA69C6
:1059740041E800237B617B69002BE3D17B68022231
:105984005A63B7F8CE301946786800F044F823E03B
:10599400D7F8E43003F08003002B09D0D7F8E030C7
:1059A40003F08003002B03D0786800F0B5F814E00E
:1059B400D7F8E43003F04003002B0ED0D7F8E030E2
:1059C40003F04003002B08D0786800F0F4F804E0FA
:1059D40000BF02E000BF00E000BFE837BD4680BD65
:1059E40080B483B000AF786000BF0C37BD4680BC84
:1059F400704780B483B000AF786000BF0C37BD46F9
:105A040080BC704780B483B000AF786000BF0C37AF
:105A1400BD4680BC704780B483B000AF78600B464D
:105A24007B8000BF0C37BD4680BC704780B495B006
:105A340000AF78607B681B680C337B637B6B53E837
:105A4400003F3B633B6B23F49073FB647B681B68F0
:105A54000C33FA6C3A64FB63F96B3A6C41E800234B
:105A6400BB63BB6B002BE5D17B681B6814333B62C3
:105A74003B6A53E8003FFB61FB6923F00103BB640D
:105A84007B681B681433BA6CFA62BB62B96AFA6A3F
:105A940041E800237B627B6A002BE5D17B681B6BAA
:105AA400012B19D17B681B680C33FB60FB6853E83E
:105AB400003FBB60BB6823F010037B647B681B68FA
:105AC4000C337A6CBA617B617969BA6941E8002365
